{
  "address": "0x900E0DAE1593A5cD9eDD98Cb29b4476bf05C6A4D",
  "abi": [
    {
      "inputs": [
        {
          "internalType": "uint256",
          "name": "_cost",
          "type": "uint256"
        },
        {
          "internalType": "uint256",
          "name": "_maxSupply",
          "type": "uint256"
        },
        {
          "internalType": "uint256",
          "name": "_maxMintAmount",
          "type": "uint256"
        },
        {
          "internalType": "uint256",
          "name": "_allowMintingOn",
          "type": "uint256"
        }
      ],
      "stateMutability": "nonpayable",
      "type": "constructor"
    },
    {
      "inputs": [],
      "name": "FriendsNFT__MintAmountMustOverZero",
      "type": "error"
    },
    {
      "inputs": [],
      "name": "FriendsNFT__MintNotAllowedYet",
      "type": "error"
    },
    {
      "inputs": [],
      "name": "FriendsNFT__OverMaxMintAmount",
      "type": "error"
    },
    {
      "inputs": [],
      "name": "FriendsNFT__OverMaxSupply",
      "type": "error"
    },
    {
      "inputs": [],
      "name": "FriendsNFT__SentIncorrectValue",
      "type": "error"
    },
    {
      "inputs": [],
      "name": "FriendsNFT__SentOwnerFailed",
      "type": "error"
    },
    {
      "anonymous": false,
      "inputs": [
        {
          "indexed": true,
          "internalType": "address",
          "name": "owner",
          "type": "address"
        },
        {
          "indexed": true,
          "internalType": "address",
          "name": "approved",
          "type": "address"
        },
        {
          "indexed": true,
          "internalType": "uint256",
          "name": "tokenId",
          "type": "uint256"
        }
      ],
      "name": "Approval",
      "type": "event"
    },
    {
      "anonymous": false,
      "inputs": [
        {
          "indexed": true,
          "internalType": "address",
          "name": "owner",
          "type": "address"
        },
        {
          "indexed": true,
          "internalType": "address",
          "name": "operator",
          "type": "address"
        },
        {
          "indexed": false,
          "internalType": "bool",
          "name": "approved",
          "type": "bool"
        }
      ],
      "name": "ApprovalForAll",
      "type": "event"
    },
    {
      "anonymous": false,
      "inputs": [
        {
          "indexed": true,
          "internalType": "address",
          "name": "nftOwner",
          "type": "address"
        },
        {
          "indexed": true,
          "internalType": "uint256",
          "name": "tokenId",
          "type": "uint256"
        },
        {
          "indexed": false,
          "internalType": "uint256",
          "name": "time",
          "type": "uint256"
        }
      ],
      "name": "MintedNFT",
      "type": "event"
    },
    {
      "anonymous": false,
      "inputs": [
        {
          "indexed": true,
          "internalType": "address",
          "name": "previousOwner",
          "type": "address"
        },
        {
          "indexed": true,
          "internalType": "address",
          "name": "newOwner",
          "type": "address"
        }
      ],
      "name": "OwnershipTransferred",
      "type": "event"
    },
    {
      "anonymous": false,
      "inputs": [
        {
          "indexed": false,
          "internalType": "address",
          "name": "account",
          "type": "address"
        }
      ],
      "name": "Paused",
      "type": "event"
    },
    {
      "anonymous": false,
      "inputs": [
        {
          "indexed": true,
          "internalType": "address",
          "name": "from",
          "type": "address"
        },
        {
          "indexed": true,
          "internalType": "address",
          "name": "to",
          "type": "address"
        },
        {
          "indexed": true,
          "internalType": "uint256",
          "name": "tokenId",
          "type": "uint256"
        }
      ],
      "name": "Transfer",
      "type": "event"
    },
    {
      "anonymous": false,
      "inputs": [
        {
          "indexed": false,
          "internalType": "address",
          "name": "account",
          "type": "address"
        }
      ],
      "name": "Unpaused",
      "type": "event"
    },
    {
      "anonymous": false,
      "inputs": [
        {
          "indexed": true,
          "internalType": "address",
          "name": "owner",
          "type": "address"
        },
        {
          "indexed": false,
          "internalType": "uint256",
          "name": "amount",
          "type": "uint256"
        },
        {
          "indexed": false,
          "internalType": "uint256",
          "name": "time",
          "type": "uint256"
        }
      ],
      "name": "WithdrawByOwner",
      "type": "event"
    },
    {
      "inputs": [],
      "name": "allowMintingAfter",
      "outputs": [
        {
          "internalType": "uint256",
          "name": "",
          "type": "uint256"
        }
      ],
      "stateMutability": "view",
      "type": "function"
    },
    {
      "inputs": [
        {
          "internalType": "address",
          "name": "to",
          "type": "address"
        },
        {
          "internalType": "uint256",
          "name": "tokenId",
          "type": "uint256"
        }
      ],
      "name": "approve",
      "outputs": [],
      "stateMutability": "nonpayable",
      "type": "function"
    },
    {
      "inputs": [
        {
          "internalType": "address",
          "name": "owner",
          "type": "address"
        }
      ],
      "name": "balanceOf",
      "outputs": [
        {
          "internalType": "uint256",
          "name": "",
          "type": "uint256"
        }
      ],
      "stateMutability": "view",
      "type": "function"
    },
    {
      "inputs": [],
      "name": "baseExtension",
      "outputs": [
        {
          "internalType": "string",
          "name": "",
          "type": "string"
        }
      ],
      "stateMutability": "view",
      "type": "function"
    },
    {
      "inputs": [],
      "name": "baseURI",
      "outputs": [
        {
          "internalType": "string",
          "name": "",
          "type": "string"
        }
      ],
      "stateMutability": "view",
      "type": "function"
    },
    {
      "inputs": [],
      "name": "cost",
      "outputs": [
        {
          "internalType": "uint256",
          "name": "",
          "type": "uint256"
        }
      ],
      "stateMutability": "view",
      "type": "function"
    },
    {
      "inputs": [
        {
          "internalType": "uint256",
          "name": "tokenId",
          "type": "uint256"
        }
      ],
      "name": "getApproved",
      "outputs": [
        {
          "internalType": "address",
          "name": "",
          "type": "address"
        }
      ],
      "stateMutability": "view",
      "type": "function"
    },
    {
      "inputs": [],
      "name": "getSecondsUntilMinting",
      "outputs": [
        {
          "internalType": "uint256",
          "name": "",
          "type": "uint256"
        }
      ],
      "stateMutability": "view",
      "type": "function"
    },
    {
      "inputs": [
        {
          "internalType": "address",
          "name": "_owner",
          "type": "address"
        }
      ],
      "name": "getTokenIdsByOwner",
      "outputs": [
        {
          "internalType": "uint256[]",
          "name": "",
          "type": "uint256[]"
        }
      ],
      "stateMutability": "view",
      "type": "function"
    },
    {
      "inputs": [
        {
          "internalType": "uint256",
          "name": "tokenId",
          "type": "uint256"
        }
      ],
      "name": "getURI",
      "outputs": [
        {
          "internalType": "string",
          "name": "",
          "type": "string"
        }
      ],
      "stateMutability": "view",
      "type": "function"
    },
    {
      "inputs": [
        {
          "internalType": "address",
          "name": "owner",
          "type": "address"
        },
        {
          "internalType": "address",
          "name": "operator",
          "type": "address"
        }
      ],
      "name": "isApprovedForAll",
      "outputs": [
        {
          "internalType": "bool",
          "name": "",
          "type": "bool"
        }
      ],
      "stateMutability": "view",
      "type": "function"
    },
    {
      "inputs": [],
      "name": "isPaused",
      "outputs": [
        {
          "internalType": "bool",
          "name": "",
          "type": "bool"
        }
      ],
      "stateMutability": "view",
      "type": "function"
    },
    {
      "inputs": [],
      "name": "isRevealed",
      "outputs": [
        {
          "internalType": "bool",
          "name": "",
          "type": "bool"
        }
      ],
      "stateMutability": "view",
      "type": "function"
    },
    {
      "inputs": [],
      "name": "maxMintAmount",
      "outputs": [
        {
          "internalType": "uint256",
          "name": "",
          "type": "uint256"
        }
      ],
      "stateMutability": "view",
      "type": "function"
    },
    {
      "inputs": [],
      "name": "maxSupply",
      "outputs": [
        {
          "internalType": "uint256",
          "name": "",
          "type": "uint256"
        }
      ],
      "stateMutability": "view",
      "type": "function"
    },
    {
      "inputs": [
        {
          "internalType": "uint256",
          "name": "_mintAmount",
          "type": "uint256"
        }
      ],
      "name": "mint",
      "outputs": [],
      "stateMutability": "payable",
      "type": "function"
    },
    {
      "inputs": [],
      "name": "name",
      "outputs": [
        {
          "internalType": "string",
          "name": "",
          "type": "string"
        }
      ],
      "stateMutability": "view",
      "type": "function"
    },
    {
      "inputs": [],
      "name": "owner",
      "outputs": [
        {
          "internalType": "address",
          "name": "",
          "type": "address"
        }
      ],
      "stateMutability": "view",
      "type": "function"
    },
    {
      "inputs": [
        {
          "internalType": "uint256",
          "name": "tokenId",
          "type": "uint256"
        }
      ],
      "name": "ownerOf",
      "outputs": [
        {
          "internalType": "address",
          "name": "",
          "type": "address"
        }
      ],
      "stateMutability": "view",
      "type": "function"
    },
    {
      "inputs": [],
      "name": "pause",
      "outputs": [],
      "stateMutability": "nonpayable",
      "type": "function"
    },
    {
      "inputs": [],
      "name": "paused",
      "outputs": [
        {
          "internalType": "bool",
          "name": "",
          "type": "bool"
        }
      ],
      "stateMutability": "view",
      "type": "function"
    },
    {
      "inputs": [],
      "name": "renounceOwnership",
      "outputs": [],
      "stateMutability": "nonpayable",
      "type": "function"
    },
    {
      "inputs": [
        {
          "internalType": "address",
          "name": "from",
          "type": "address"
        },
        {
          "internalType": "address",
          "name": "to",
          "type": "address"
        },
        {
          "internalType": "uint256",
          "name": "tokenId",
          "type": "uint256"
        }
      ],
      "name": "safeTransferFrom",
      "outputs": [],
      "stateMutability": "nonpayable",
      "type": "function"
    },
    {
      "inputs": [
        {
          "internalType": "address",
          "name": "from",
          "type": "address"
        },
        {
          "internalType": "address",
          "name": "to",
          "type": "address"
        },
        {
          "internalType": "uint256",
          "name": "tokenId",
          "type": "uint256"
        },
        {
          "internalType": "bytes",
          "name": "data",
          "type": "bytes"
        }
      ],
      "name": "safeTransferFrom",
      "outputs": [],
      "stateMutability": "nonpayable",
      "type": "function"
    },
    {
      "inputs": [
        {
          "internalType": "address",
          "name": "operator",
          "type": "address"
        },
        {
          "internalType": "bool",
          "name": "approved",
          "type": "bool"
        }
      ],
      "name": "setApprovalForAll",
      "outputs": [],
      "stateMutability": "nonpayable",
      "type": "function"
    },
    {
      "inputs": [
        {
          "internalType": "string",
          "name": "_newBaseExtension",
          "type": "string"
        }
      ],
      "name": "setBaseExtension",
      "outputs": [],
      "stateMutability": "nonpayable",
      "type": "function"
    },
    {
      "inputs": [
        {
          "internalType": "string",
          "name": "_newBaseURI",
          "type": "string"
        }
      ],
      "name": "setBaseURI",
      "outputs": [],
      "stateMutability": "nonpayable",
      "type": "function"
    },
    {
      "inputs": [
        {
          "internalType": "uint256",
          "name": "_newCost",
          "type": "uint256"
        }
      ],
      "name": "setCost",
      "outputs": [],
      "stateMutability": "nonpayable",
      "type": "function"
    },
    {
      "inputs": [
        {
          "internalType": "bool",
          "name": "_state",
          "type": "bool"
        }
      ],
      "name": "setIsPaused",
      "outputs": [],
      "stateMutability": "nonpayable",
      "type": "function"
    },
    {
      "inputs": [
        {
          "internalType": "bool",
          "name": "_state",
          "type": "bool"
        }
      ],
      "name": "setIsRevealed",
      "outputs": [],
      "stateMutability": "nonpayable",
      "type": "function"
    },
    {
      "inputs": [
        {
          "internalType": "uint256",
          "name": "_newmaxMintAmount",
          "type": "uint256"
        }
      ],
      "name": "setmaxMintAmount",
      "outputs": [],
      "stateMutability": "nonpayable",
      "type": "function"
    },
    {
      "inputs": [
        {
          "internalType": "bytes4",
          "name": "interfaceId",
          "type": "bytes4"
        }
      ],
      "name": "supportsInterface",
      "outputs": [
        {
          "internalType": "bool",
          "name": "",
          "type": "bool"
        }
      ],
      "stateMutability": "view",
      "type": "function"
    },
    {
      "inputs": [],
      "name": "symbol",
      "outputs": [
        {
          "internalType": "string",
          "name": "",
          "type": "string"
        }
      ],
      "stateMutability": "view",
      "type": "function"
    },
    {
      "inputs": [],
      "name": "timeDeployed",
      "outputs": [
        {
          "internalType": "uint256",
          "name": "",
          "type": "uint256"
        }
      ],
      "stateMutability": "view",
      "type": "function"
    },
    {
      "inputs": [
        {
          "internalType": "uint256",
          "name": "index",
          "type": "uint256"
        }
      ],
      "name": "tokenByIndex",
      "outputs": [
        {
          "internalType": "uint256",
          "name": "",
          "type": "uint256"
        }
      ],
      "stateMutability": "view",
      "type": "function"
    },
    {
      "inputs": [
        {
          "internalType": "address",
          "name": "owner",
          "type": "address"
        },
        {
          "internalType": "uint256",
          "name": "index",
          "type": "uint256"
        }
      ],
      "name": "tokenOfOwnerByIndex",
      "outputs": [
        {
          "internalType": "uint256",
          "name": "",
          "type": "uint256"
        }
      ],
      "stateMutability": "view",
      "type": "function"
    },
    {
      "inputs": [
        {
          "internalType": "uint256",
          "name": "tokenId",
          "type": "uint256"
        }
      ],
      "name": "tokenURI",
      "outputs": [
        {
          "internalType": "string",
          "name": "",
          "type": "string"
        }
      ],
      "stateMutability": "view",
      "type": "function"
    },
    {
      "inputs": [],
      "name": "totalSupply",
      "outputs": [
        {
          "internalType": "uint256",
          "name": "",
          "type": "uint256"
        }
      ],
      "stateMutability": "view",
      "type": "function"
    },
    {
      "inputs": [
        {
          "internalType": "address",
          "name": "from",
          "type": "address"
        },
        {
          "internalType": "address",
          "name": "to",
          "type": "address"
        },
        {
          "internalType": "uint256",
          "name": "tokenId",
          "type": "uint256"
        }
      ],
      "name": "transferFrom",
      "outputs": [],
      "stateMutability": "nonpayable",
      "type": "function"
    },
    {
      "inputs": [
        {
          "internalType": "address",
          "name": "newOwner",
          "type": "address"
        }
      ],
      "name": "transferOwnership",
      "outputs": [],
      "stateMutability": "nonpayable",
      "type": "function"
    },
    {
      "inputs": [],
      "name": "unpause",
      "outputs": [],
      "stateMutability": "nonpayable",
      "type": "function"
    },
    {
      "inputs": [],
      "name": "withdraw",
      "outputs": [],
      "stateMutability": "nonpayable",
      "type": "function"
    }
  ],
  "transactionHash": "0x6aeef6d5e86c56dfa9080357aaecc7c37fe4fb34f8ed36bf0f46add4a0ff1a43",
  "args": [
    0,
    5,
    2,
    1680960609
  ],
  "numDeployments": 1,
  "solcInputHash": "8a91db194c32c5a7050e668fc0b641f1",
  "bytecode": "0x60806040526000601260006101000a81548160ff0219169083151502179055506001601260016101000a81548160ff021916908315150217905550604051806080016040528060438152602001620052fc604391396013908162000064919062000538565b506040518060400160405280600581526020017f2e6a736f6e00000000000000000000000000000000000000000000000000000081525060149081620000ab919062000538565b50348015620000b957600080fd5b506040516200533f3803806200533f8339818101604052810190620000df919062000655565b6040518060400160405280600e81526020017f426f7265642053747564656e74730000000000000000000000000000000000008152506040518060400160405280600381526020017f425354000000000000000000000000000000000000000000000000000000000081525081600090816200015c919062000538565b5080600190816200016e919062000538565b5050506000600b60006101000a81548160ff021916908315150217905550620001ac620001a0620001f060201b60201c565b620001f860201b60201c565b83600d8190555082600e81905550816010819055504260118190555042811115620001e6574281620001df9190620006f6565b600f819055505b5050505062000731565b600033905090565b6000600b60019054906101000a900473ffffffffffffffffffffffffffffffffffffffff16905081600b60016101000a81548173ffffffffffffffffffffffffffffffffffffffff021916908373ffffffffffffffffffffffffffffffffffffffff1602179055508173ffffffffffffffffffffffffffffffffffffffff168173ffffffffffffffffffffffffffffffffffffffff167f8be0079c531659141344cd1fd0a4f28419497f9722a3daafe3b4186f6b6457e060405160405180910390a35050565b600081519050919050565b7f4e487b7100000000000000000000000000000000000000000000000000000000600052604160045260246000fd5b7f4e487b7100000000000000000000000000000000000000000000000000000000600052602260045260246000fd5b600060028204905060018216806200034057607f821691505b602082108103620003565762000355620002f8565b5b50919050565b60008190508160005260206000209050919050565b60006020601f8301049050919050565b600082821b905092915050565b600060088302620003c07fffffffffffffffffffffffffffffffffffffffffffffffffffffffffffffffff8262000381565b620003cc868362000381565b95508019841693508086168417925050509392505050565b6000819050919050565b6000819050919050565b600062000419620004136200040d84620003e4565b620003ee565b620003e4565b9050919050565b6000819050919050565b6200043583620003f8565b6200044d620004448262000420565b8484546200038e565b825550505050565b600090565b6200046462000455565b620004718184846200042a565b505050565b5b8181101562000499576200048d6000826200045a565b60018101905062000477565b5050565b601f821115620004e857620004b2816200035c565b620004bd8462000371565b81016020851015620004cd578190505b620004e5620004dc8562000371565b83018262000476565b50505b505050565b600082821c905092915050565b60006200050d60001984600802620004ed565b1980831691505092915050565b6000620005288383620004fa565b9150826002028217905092915050565b6200054382620002be565b67ffffffffffffffff8111156200055f576200055e620002c9565b5b6200056b825462000327565b620005788282856200049d565b600060209050601f831160018114620005b057600084156200059b578287015190505b620005a785826200051a565b86555062000617565b601f198416620005c0866200035c565b60005b82811015620005ea57848901518255600182019150602085019450602081019050620005c3565b868310156200060a578489015162000606601f891682620004fa565b8355505b6001600288020188555050505b505050505050565b600080fd5b6200062f81620003e4565b81146200063b57600080fd5b50565b6000815190506200064f8162000624565b92915050565b600080600080608085870312156200067257620006716200061f565b5b600062000682878288016200063e565b945050602062000695878288016200063e565b9350506040620006a8878288016200063e565b9250506060620006bb878288016200063e565b91505092959194509250565b7f4e487b7100000000000000000000000000000000000000000000000000000000600052601160045260246000fd5b60006200070382620003e4565b91506200071083620003e4565b92508282039050818111156200072b576200072a620006c7565b5b92915050565b614bbb80620007416000396000f3fe6080604052600436106102515760003560e01c80636352211e11610139578063a0712d68116100b6578063c66828621161007a578063c66828621461087f578063c87b56dd146108aa578063d5abeb01146108e7578063da3ef23f14610912578063e985e9c51461093b578063f2fde38b1461097857610251565b8063a0712d68146107bb578063a22cb465146107d7578063a75052cb14610800578063b187bd261461082b578063b88d4fde1461085657610251565b80637f00c7a6116100fd5780637f00c7a6146106fa5780638456cb5914610723578063872bdcdb1461073a5780638da5cb5b1461076557806395d89b411461079057610251565b80636352211e146106015780636970bb0a1461063e5780636c0360eb1461067b57806370a08231146106a6578063715018a6146106e357610251565b8063240976bf116101d257806344a0d68a1161019657806344a0d68a146104f357806349a5980a1461051c5780634f6ccce71461054557806354214f691461058257806355f804b3146105ad5780635c975abb146105d657610251565b8063240976bf146104365780632f745c591461045f5780633ccfd60b1461049c5780633f4ba83a146104b357806342842e0e146104ca57610251565b806318160ddd1161021957806318160ddd1461034f57806319188c351461037a5780631aa347dc146103a5578063239c70ae146103e257806323b872dd1461040d57610251565b806301ffc9a71461025657806306fdde0314610293578063081812fc146102be578063095ea7b3146102fb57806313faede614610324575b600080fd5b34801561026257600080fd5b5061027d60048036038101906102789190613296565b6109a1565b60405161028a91906132de565b60405180910390f35b34801561029f57600080fd5b506102a86109b3565b6040516102b59190613389565b60405180910390f35b3480156102ca57600080fd5b506102e560048036038101906102e091906133e1565b610a45565b6040516102f2919061344f565b60405180910390f35b34801561030757600080fd5b50610322600480360381019061031d9190613496565b610a8b565b005b34801561033057600080fd5b50610339610ba2565b60405161034691906134e5565b60405180910390f35b34801561035b57600080fd5b50610364610ba8565b60405161037191906134e5565b60405180910390f35b34801561038657600080fd5b5061038f610bb5565b60405161039c91906134e5565b60405180910390f35b3480156103b157600080fd5b506103cc60048036038101906103c791906133e1565b610bbb565b6040516103d99190613389565b60405180910390f35b3480156103ee57600080fd5b506103f7610c63565b60405161040491906134e5565b60405180910390f35b34801561041957600080fd5b50610434600480360381019061042f9190613500565b610c69565b005b34801561044257600080fd5b5061045d6004803603810190610458919061357f565b610cc9565b005b34801561046b57600080fd5b5061048660048036038101906104819190613496565b610cee565b60405161049391906134e5565b60405180910390f35b3480156104a857600080fd5b506104b1610d93565b005b3480156104bf57600080fd5b506104c8610e97565b005b3480156104d657600080fd5b506104f160048036038101906104ec9190613500565b610ea9565b005b3480156104ff57600080fd5b5061051a600480360381019061051591906133e1565b610ec9565b005b34801561052857600080fd5b50610543600480360381019061053e919061357f565b610edb565b005b34801561055157600080fd5b5061056c600480360381019061056791906133e1565b610f00565b60405161057991906134e5565b60405180910390f35b34801561058e57600080fd5b50610597610f71565b6040516105a491906132de565b60405180910390f35b3480156105b957600080fd5b506105d460048036038101906105cf91906136e1565b610f84565b005b3480156105e257600080fd5b506105eb610f9f565b6040516105f891906132de565b60405180910390f35b34801561060d57600080fd5b50610628600480360381019061062391906133e1565b610fb6565b604051610635919061344f565b60405180910390f35b34801561064a57600080fd5b506106656004803603810190610660919061372a565b61103c565b6040516106729190613815565b60405180910390f35b34801561068757600080fd5b506106906110ea565b60405161069d9190613389565b60405180910390f35b3480156106b257600080fd5b506106cd60048036038101906106c8919061372a565b611178565b6040516106da91906134e5565b60405180910390f35b3480156106ef57600080fd5b506106f861122f565b005b34801561070657600080fd5b50610721600480360381019061071c91906133e1565b611243565b005b34801561072f57600080fd5b50610738611255565b005b34801561074657600080fd5b5061074f611267565b60405161075c91906134e5565b60405180910390f35b34801561077157600080fd5b5061077a61126d565b604051610787919061344f565b60405180910390f35b34801561079c57600080fd5b506107a5611297565b6040516107b29190613389565b60405180910390f35b6107d560048036038101906107d091906133e1565b611329565b005b3480156107e357600080fd5b506107fe60048036038101906107f99190613837565b611599565b005b34801561080c57600080fd5b506108156115af565b60405161082291906134e5565b60405180910390f35b34801561083757600080fd5b506108406115f2565b60405161084d91906132de565b60405180910390f35b34801561086257600080fd5b5061087d60048036038101906108789190613918565b611605565b005b34801561088b57600080fd5b50610894611667565b6040516108a19190613389565b60405180910390f35b3480156108b657600080fd5b506108d160048036038101906108cc91906133e1565b6116f5565b6040516108de9190613389565b60405180910390f35b3480156108f357600080fd5b506108fc611707565b60405161090991906134e5565b60405180910390f35b34801561091e57600080fd5b50610939600480360381019061093491906136e1565b61170d565b005b34801561094757600080fd5b50610962600480360381019061095d919061399b565b611728565b60405161096f91906132de565b60405180910390f35b34801561098457600080fd5b5061099f600480360381019061099a919061372a565b6117bc565b005b60006109ac8261183f565b9050919050565b6060600080546109c290613a0a565b80601f01602080910402602001604051908101604052809291908181526020018280546109ee90613a0a565b8015610a3b5780601f10610a1057610100808354040283529160200191610a3b565b820191906000526020600020905b815481529060010190602001808311610a1e57829003601f168201915b5050505050905090565b6000610a50826118b9565b6004600083815260200190815260200160002060009054906101000a900473ffffffffffffffffffffffffffffffffffffffff169050919050565b6000610a9682610fb6565b90508073ffffffffffffffffffffffffffffffffffffffff168373ffffffffffffffffffffffffffffffffffffffff1603610b06576040517f08c379a0000000000000000000000000000000000000000000000000000000008152600401610afd90613aad565b60405180910390fd5b8073ffffffffffffffffffffffffffffffffffffffff16610b25611904565b73ffffffffffffffffffffffffffffffffffffffff161480610b545750610b5381610b4e611904565b611728565b5b610b93576040517f08c379a0000000000000000000000000000000000000000000000000000000008152600401610b8a90613b3f565b60405180910390fd5b610b9d838361190c565b505050565b600d5481565b6000600880549050905090565b60115481565b6060610bc6826119c5565b610c05576040517f08c379a0000000000000000000000000000000000000000000000000000000008152600401610bfc90613bab565b60405180910390fd5b6000610c0f611a06565b90506000815111610c2f5760405180602001604052806000815250610c5b565b610c3883611a98565b6014604051602001610c4b929190613ceb565b6040516020818303038152906040525b915050919050565b60105481565b610c7a610c74611904565b82611b66565b610cb9576040517f08c379a0000000000000000000000000000000000000000000000000000000008152600401610cb090613d8c565b60405180910390fd5b610cc4838383611bfb565b505050565b610cd1611ef4565b80601260006101000a81548160ff02191690831515021790555050565b6000610cf983611178565b8210610d3a576040517f08c379a0000000000000000000000000000000000000000000000000000000008152600401610d3190613e1e565b60405180910390fd5b600660008473ffffffffffffffffffffffffffffffffffffffff1673ffffffffffffffffffffffffffffffffffffffff168152602001908152602001600020600083815260200190815260200160002054905092915050565b610d9b611ef4565b600047905060003373ffffffffffffffffffffffffffffffffffffffff1682604051610dc690613e6f565b60006040518083038185875af1925050503d8060008114610e03576040519150601f19603f3d011682016040523d82523d6000602084013e610e08565b606091505b5050905080610e43576040517fcd5ff28000000000000000000000000000000000000000000000000000000000815260040160405180910390fd5b3373ffffffffffffffffffffffffffffffffffffffff167fca15cdb8b85a5f39f932660e16b14cbabfecd588d99400d91d7b6548e76eac728342604051610e8b929190613e84565b60405180910390a25050565b610e9f611ef4565b610ea7611f72565b565b610ec483838360405180602001604052806000815250611605565b505050565b610ed1611ef4565b80600d8190555050565b610ee3611ef4565b80601260016101000a81548160ff02191690831515021790555050565b6000610f0a610ba8565b8210610f4b576040517f08c379a0000000000000000000000000000000000000000000000000000000008152600401610f4290613f1f565b60405180910390fd5b60088281548110610f5f57610f5e613f3f565b5b90600052602060002001549050919050565b601260019054906101000a900460ff1681565b610f8c611ef4565b8060139081610f9b9190614105565b5050565b6000600b60009054906101000a900460ff16905090565b600080610fc283611fd5565b9050600073ffffffffffffffffffffffffffffffffffffffff168173ffffffffffffffffffffffffffffffffffffffff1603611033576040517f08c379a000000000000000000000000000000000000000000000000000000000815260040161102a90614223565b60405180910390fd5b80915050919050565b6060600061104983611178565b905060008167ffffffffffffffff811115611067576110666135b6565b5b6040519080825280602002602001820160405280156110955781602001602082028036833780820191505090505b50905060005b828110156110df576110ad8582610cee565b8282815181106110c0576110bf613f3f565b5b60200260200101818152505080806110d790614272565b91505061109b565b508092505050919050565b601380546110f790613a0a565b80601f016020809104026020016040519081016040528092919081815260200182805461112390613a0a565b80156111705780601f1061114557610100808354040283529160200191611170565b820191906000526020600020905b81548152906001019060200180831161115357829003601f168201915b505050505081565b60008073ffffffffffffffffffffffffffffffffffffffff168273ffffffffffffffffffffffffffffffffffffffff16036111e8576040517f08c379a00000000000000000000000000000000000000000000000000000000081526004016111df9061432c565b60405180910390fd5b600360008373ffffffffffffffffffffffffffffffffffffffff1673ffffffffffffffffffffffffffffffffffffffff168152602001908152602001600020549050919050565b611237611ef4565b6112416000612012565b565b61124b611ef4565b8060108190555050565b61125d611ef4565b6112656120d8565b565b600f5481565b6000600b60019054906101000a900473ffffffffffffffffffffffffffffffffffffffff16905090565b6060600180546112a690613a0a565b80601f01602080910402602001604051908101604052809291908181526020018280546112d290613a0a565b801561131f5780601f106112f45761010080835404028352916020019161131f565b820191906000526020600020905b81548152906001019060200180831161130257829003601f168201915b5050505050905090565b601260009054906101000a900460ff161561134357600080fd5b600f54601154611353919061434c565b42101561138c576040517f75bdae4a00000000000000000000000000000000000000000000000000000000815260040160405180910390fd5b6010548111156113c8576040517f90a70fb300000000000000000000000000000000000000000000000000000000815260040160405180910390fd5b6000811015611403576040517f48403d8900000000000000000000000000000000000000000000000000000000815260040160405180910390fd5b600061140d610ba8565b9050600e54828261141e919061434c565b1115611456576040517fe72c34ec00000000000000000000000000000000000000000000000000000000815260040160405180910390fd5b61145e61126d565b73ffffffffffffffffffffffffffffffffffffffff163373ffffffffffffffffffffffffffffffffffffffff16141580156114a6575081600d546114a29190614380565b3414155b156114dd576040517fa4238cfc00000000000000000000000000000000000000000000000000000000815260040160405180910390fd5b60005b828160ff16101561159457600060016114f9600c61213b565b611503919061434c565b905061150f600c612149565b611519338261215f565b600061152482610bbb565b9050611530828261217d565b813373ffffffffffffffffffffffffffffffffffffffff167f27f581175c28f51fe9447b724f6ec52c8335d03b958107f6fb14e955981af4c04260405161157791906134e5565b60405180910390a35050808061158c906143cf565b9150506114e0565b505050565b6115ab6115a4611904565b83836121ea565b5050565b6000600f546011546115c1919061434c565b4210156115ea5742600f546011546115d9919061434c565b6115e391906143f8565b90506115ef565b600090505b90565b601260009054906101000a900460ff1681565b611616611610611904565b83611b66565b611655576040517f08c379a000000000000000000000000000000000000000000000000000000000815260040161164c90613d8c565b60405180910390fd5b61166184848484612356565b50505050565b6014805461167490613a0a565b80601f01602080910402602001604051908101604052809291908181526020018280546116a090613a0a565b80156116ed5780601f106116c2576101008083540402835291602001916116ed565b820191906000526020600020905b8154815290600101906020018083116116d057829003601f168201915b505050505081565b6060611700826123b2565b9050919050565b600e5481565b611715611ef4565b80601490816117249190614105565b5050565b6000600560008473ffffffffffffffffffffffffffffffffffffffff1673ffffffffffffffffffffffffffffffffffffffff16815260200190815260200160002060008373ffffffffffffffffffffffffffffffffffffffff1673ffffffffffffffffffffffffffffffffffffffff16815260200190815260200160002060009054906101000a900460ff16905092915050565b6117c4611ef4565b600073ffffffffffffffffffffffffffffffffffffffff168173ffffffffffffffffffffffffffffffffffffffff1603611833576040517f08c379a000000000000000000000000000000000000000000000000000000000815260040161182a9061449e565b60405180910390fd5b61183c81612012565b50565b60007f780e9d63000000000000000000000000000000000000000000000000000000007bffffffffffffffffffffffffffffffffffffffffffffffffffffffff1916827bffffffffffffffffffffffffffffffffffffffffffffffffffffffff191614806118b257506118b1826124c4565b5b9050919050565b6118c2816119c5565b611901576040517f08c379a00000000000000000000000000000000000000000000000000000000081526004016118f890614223565b60405180910390fd5b50565b600033905090565b816004600083815260200190815260200160002060006101000a81548173ffffffffffffffffffffffffffffffffffffffff021916908373ffffffffffffffffffffffffffffffffffffffff160217905550808273ffffffffffffffffffffffffffffffffffffffff1661197f83610fb6565b73ffffffffffffffffffffffffffffffffffffffff167f8c5be1e5ebec7d5bd14f71427d1e84f3dd0314c0f7b2291e5b200ac8c7c3b92560405160405180910390a45050565b60008073ffffffffffffffffffffffffffffffffffffffff166119e783611fd5565b73ffffffffffffffffffffffffffffffffffffffff1614159050919050565b606060138054611a1590613a0a565b80601f0160208091040260200160405190810160405280929190818152602001828054611a4190613a0a565b8015611a8e5780601f10611a6357610100808354040283529160200191611a8e565b820191906000526020600020905b815481529060010190602001808311611a7157829003601f168201915b5050505050905090565b606060006001611aa7846125a6565b01905060008167ffffffffffffffff811115611ac657611ac56135b6565b5b6040519080825280601f01601f191660200182016040528015611af85781602001600182028036833780820191505090505b509050600082602001820190505b600115611b5b578080600190039150507f3031323334353637383961626364656600000000000000000000000000000000600a86061a8153600a8581611b4f57611b4e6144be565b5b04945060008503611b06575b819350505050919050565b600080611b7283610fb6565b90508073ffffffffffffffffffffffffffffffffffffffff168473ffffffffffffffffffffffffffffffffffffffff161480611bb45750611bb38185611728565b5b80611bf257508373ffffffffffffffffffffffffffffffffffffffff16611bda84610a45565b73ffffffffffffffffffffffffffffffffffffffff16145b91505092915050565b8273ffffffffffffffffffffffffffffffffffffffff16611c1b82610fb6565b73ffffffffffffffffffffffffffffffffffffffff1614611c71576040517f08c379a0000000000000000000000000000000000000000000000000000000008152600401611c689061455f565b60405180910390fd5b600073ffffffffffffffffffffffffffffffffffffffff168273ffffffffffffffffffffffffffffffffffffffff1603611ce0576040517f08c379a0000000000000000000000000000000000000000000000000000000008152600401611cd7906145f1565b60405180910390fd5b611ced83838360016126f9565b8273ffffffffffffffffffffffffffffffffffffffff16611d0d82610fb6565b73ffffffffffffffffffffffffffffffffffffffff1614611d63576040517f08c379a0000000000000000000000000000000000000000000000000000000008152600401611d5a9061455f565b60405180910390fd5b6004600082815260200190815260200160002060006101000a81549073ffffffffffffffffffffffffffffffffffffffff02191690556001600360008573ffffffffffffffffffffffffffffffffffffffff1673ffffffffffffffffffffffffffffffffffffffff168152602001908152602001600020600082825403925050819055506001600360008473ffffffffffffffffffffffffffffffffffffffff1673ffffffffffffffffffffffffffffffffffffffff16815260200190815260200160002060008282540192505081905550816002600083815260200190815260200160002060006101000a81548173ffffffffffffffffffffffffffffffffffffffff021916908373ffffffffffffffffffffffffffffffffffffffff160217905550808273ffffffffffffffffffffffffffffffffffffffff168473ffffffffffffffffffffffffffffffffffffffff167fddf252ad1be2c89b69c2b068fc378daa952ba7f163c4a11628f55a4df523b3ef60405160405180910390a4611eef8383836001612713565b505050565b611efc611904565b73ffffffffffffffffffffffffffffffffffffffff16611f1a61126d565b73ffffffffffffffffffffffffffffffffffffffff1614611f70576040517f08c379a0000000000000000000000000000000000000000000000000000000008152600401611f679061465d565b60405180910390fd5b565b611f7a612719565b6000600b60006101000a81548160ff0219169083151502179055507f5db9ee0a495bf2e6ff9c91a7834c1ba4fdd244a5e8aa4e537bd38aeae4b073aa611fbe611904565b604051611fcb919061344f565b60405180910390a1565b60006002600083815260200190815260200160002060009054906101000a900473ffffffffffffffffffffffffffffffffffffffff169050919050565b6000600b60019054906101000a900473ffffffffffffffffffffffffffffffffffffffff16905081600b60016101000a81548173ffffffffffffffffffffffffffffffffffffffff021916908373ffffffffffffffffffffffffffffffffffffffff1602179055508173ffffffffffffffffffffffffffffffffffffffff168173ffffffffffffffffffffffffffffffffffffffff167f8be0079c531659141344cd1fd0a4f28419497f9722a3daafe3b4186f6b6457e060405160405180910390a35050565b6120e0612762565b6001600b60006101000a81548160ff0219169083151502179055507f62e78cea01bee320cd4e420270b5ea74000d11b0c9f74754ebdbfc544b05a258612124611904565b604051612131919061344f565b60405180910390a1565b600081600001549050919050565b6001816000016000828254019250508190555050565b6121798282604051806020016040528060008152506127ac565b5050565b612186826119c5565b6121c5576040517f08c379a00000000000000000000000000000000000000000000000000000000081526004016121bc906146ef565b60405180910390fd5b80600a600084815260200190815260200160002090816121e59190614105565b505050565b8173ffffffffffffffffffffffffffffffffffffffff168373ffffffffffffffffffffffffffffffffffffffff1603612258576040517f08c379a000000000000000000000000000000000000000000000000000000000815260040161224f9061475b565b60405180910390fd5b80600560008573ffffffffffffffffffffffffffffffffffffffff1673ffffffffffffffffffffffffffffffffffffffff16815260200190815260200160002060008473ffffffffffffffffffffffffffffffffffffffff1673ffffffffffffffffffffffffffffffffffffffff16815260200190815260200160002060006101000a81548160ff0219169083151502179055508173ffffffffffffffffffffffffffffffffffffffff168373ffffffffffffffffffffffffffffffffffffffff167f17307eab39ab6107e8899845ad3d59bd9653f200f220920489ca2b5937696c318360405161234991906132de565b60405180910390a3505050565b612361848484611bfb565b61236d84848484612807565b6123ac576040517f08c379a00000000000000000000000000000000000000000000000000000000081526004016123a3906147ed565b60405180910390fd5b50505050565b60606123bd826118b9565b6000600a600084815260200190815260200160002080546123dd90613a0a565b80601f016020809104026020016040519081016040528092919081815260200182805461240990613a0a565b80156124565780601f1061242b57610100808354040283529160200191612456565b820191906000526020600020905b81548152906001019060200180831161243957829003601f168201915b505050505090506000612467611a06565b9050600081510361247c5781925050506124bf565b6000825111156124b157808260405160200161249992919061480d565b604051602081830303815290604052925050506124bf565b6124ba8461298e565b925050505b919050565b60007f80ac58cd000000000000000000000000000000000000000000000000000000007bffffffffffffffffffffffffffffffffffffffffffffffffffffffff1916827bffffffffffffffffffffffffffffffffffffffffffffffffffffffff1916148061258f57507f5b5e139f000000000000000000000000000000000000000000000000000000007bffffffffffffffffffffffffffffffffffffffffffffffffffffffff1916827bffffffffffffffffffffffffffffffffffffffffffffffffffffffff1916145b8061259f575061259e826129f6565b5b9050919050565b600080600090507a184f03e93ff9f4daa797ed6e38ed64bf6a1f0100000000000000008310612604577a184f03e93ff9f4daa797ed6e38ed64bf6a1f01000000000000000083816125fa576125f96144be565b5b0492506040810190505b6d04ee2d6d415b85acef81000000008310612641576d04ee2d6d415b85acef81000000008381612637576126366144be565b5b0492506020810190505b662386f26fc10000831061267057662386f26fc100008381612666576126656144be565b5b0492506010810190505b6305f5e1008310612699576305f5e100838161268f5761268e6144be565b5b0492506008810190505b61271083106126be5761271083816126b4576126b36144be565b5b0492506004810190505b606483106126e157606483816126d7576126d66144be565b5b0492506002810190505b600a83106126f0576001810190505b80915050919050565b612701612762565b61270d84848484612a60565b50505050565b50505050565b612721610f9f565b612760576040517f08c379a00000000000000000000000000000000000000000000000000000000081526004016127579061487d565b60405180910390fd5b565b61276a610f9f565b156127aa576040517f08c379a00000000000000000000000000000000000000000000000000000000081526004016127a1906148e9565b60405180910390fd5b565b6127b68383612bbe565b6127c36000848484612807565b612802576040517f08c379a00000000000000000000000000000000000000000000000000000000081526004016127f9906147ed565b60405180910390fd5b505050565b60006128288473ffffffffffffffffffffffffffffffffffffffff16612ddb565b15612981578373ffffffffffffffffffffffffffffffffffffffff1663150b7a02612851611904565b8786866040518563ffffffff1660e01b8152600401612873949392919061495e565b6020604051808303816000875af19250505080156128af57506040513d601f19601f820116820180604052508101906128ac91906149bf565b60015b612931573d80600081146128df576040519150601f19603f3d011682016040523d82523d6000602084013e6128e4565b606091505b506000815103612929576040517f08c379a0000000000000000000000000000000000000000000000000000000008152600401612920906147ed565b60405180910390fd5b805181602001fd5b63150b7a0260e01b7bffffffffffffffffffffffffffffffffffffffffffffffffffffffff1916817bffffffffffffffffffffffffffffffffffffffffffffffffffffffff191614915050612986565b600190505b949350505050565b6060612999826118b9565b60006129a3611a06565b905060008151116129c357604051806020016040528060008152506129ee565b806129cd84611a98565b6040516020016129de92919061480d565b6040516020818303038152906040525b915050919050565b60007f01ffc9a7000000000000000000000000000000000000000000000000000000007bffffffffffffffffffffffffffffffffffffffffffffffffffffffff1916827bffffffffffffffffffffffffffffffffffffffffffffffffffffffff1916149050919050565b612a6c84848484612dfe565b6001811115612ab0576040517f08c379a0000000000000000000000000000000000000000000000000000000008152600401612aa790614a5e565b60405180910390fd5b6000829050600073ffffffffffffffffffffffffffffffffffffffff168573ffffffffffffffffffffffffffffffffffffffff1603612af757612af281612f24565b612b36565b8373ffffffffffffffffffffffffffffffffffffffff168573ffffffffffffffffffffffffffffffffffffffff1614612b3557612b348582612f6d565b5b5b600073ffffffffffffffffffffffffffffffffffffffff168473ffffffffffffffffffffffffffffffffffffffff1603612b7857612b73816130da565b612bb7565b8473ffffffffffffffffffffffffffffffffffffffff168473ffffffffffffffffffffffffffffffffffffffff1614612bb657612bb584826131ab565b5b5b5050505050565b600073ffffffffffffffffffffffffffffffffffffffff168273ffffffffffffffffffffffffffffffffffffffff1603612c2d576040517f08c379a0000000000000000000000000000000000000000000000000000000008152600401612c2490614aca565b60405180910390fd5b612c36816119c5565b15612c76576040517f08c379a0000000000000000000000000000000000000000000000000000000008152600401612c6d90614b36565b60405180910390fd5b612c846000838360016126f9565b612c8d816119c5565b15612ccd576040517f08c379a0000000000000000000000000000000000000000000000000000000008152600401612cc490614b36565b60405180910390fd5b6001600360008473ffffffffffffffffffffffffffffffffffffffff1673ffffffffffffffffffffffffffffffffffffffff16815260200190815260200160002060008282540192505081905550816002600083815260200190815260200160002060006101000a81548173ffffffffffffffffffffffffffffffffffffffff021916908373ffffffffffffffffffffffffffffffffffffffff160217905550808273ffffffffffffffffffffffffffffffffffffffff16600073ffffffffffffffffffffffffffffffffffffffff167fddf252ad1be2c89b69c2b068fc378daa952ba7f163c4a11628f55a4df523b3ef60405160405180910390a4612dd7600083836001612713565b5050565b6000808273ffffffffffffffffffffffffffffffffffffffff163b119050919050565b6001811115612f1e57600073ffffffffffffffffffffffffffffffffffffffff168473ffffffffffffffffffffffffffffffffffffffff1614612e925780600360008673ffffffffffffffffffffffffffffffffffffffff1673ffffffffffffffffffffffffffffffffffffffff1681526020019081526020016000206000828254612e8a91906143f8565b925050819055505b600073ffffffffffffffffffffffffffffffffffffffff168373ffffffffffffffffffffffffffffffffffffffff1614612f1d5780600360008573ffffffffffffffffffffffffffffffffffffffff1673ffffffffffffffffffffffffffffffffffffffff1681526020019081526020016000206000828254612f15919061434c565b925050819055505b5b50505050565b6008805490506009600083815260200190815260200160002081905550600881908060018154018082558091505060019003906000526020600020016000909190919091505550565b60006001612f7a84611178565b612f8491906143f8565b9050600060076000848152602001908152602001600020549050818114613069576000600660008673ffffffffffffffffffffffffffffffffffffffff1673ffffffffffffffffffffffffffffffffffffffff168152602001908152602001600020600084815260200190815260200160002054905080600660008773ffffffffffffffffffffffffffffffffffffffff1673ffffffffffffffffffffffffffffffffffffffff168152602001908152602001600020600084815260200190815260200160002081905550816007600083815260200190815260200160002081905550505b6007600084815260200190815260200160002060009055600660008573ffffffffffffffffffffffffffffffffffffffff1673ffffffffffffffffffffffffffffffffffffffff16815260200190815260200160002060008381526020019081526020016000206000905550505050565b600060016008805490506130ee91906143f8565b905060006009600084815260200190815260200160002054905060006008838154811061311e5761311d613f3f565b5b9060005260206000200154905080600883815481106131405761313f613f3f565b5b90600052602060002001819055508160096000838152602001908152602001600020819055506009600085815260200190815260200160002060009055600880548061318f5761318e614b56565b5b6001900381819060005260206000200160009055905550505050565b60006131b683611178565b905081600660008573ffffffffffffffffffffffffffffffffffffffff1673ffffffffffffffffffffffffffffffffffffffff168152602001908152602001600020600083815260200190815260200160002081905550806007600084815260200190815260200160002081905550505050565b6000604051905090565b600080fd5b600080fd5b60007fffffffff0000000000000000000000000000000000000000000000000000000082169050919050565b6132738161323e565b811461327e57600080fd5b50565b6000813590506132908161326a565b92915050565b6000602082840312156132ac576132ab613234565b5b60006132ba84828501613281565b91505092915050565b60008115159050919050565b6132d8816132c3565b82525050565b60006020820190506132f360008301846132cf565b92915050565b600081519050919050565b600082825260208201905092915050565b60005b83811015613333578082015181840152602081019050613318565b60008484015250505050565b6000601f19601f8301169050919050565b600061335b826132f9565b6133658185613304565b9350613375818560208601613315565b61337e8161333f565b840191505092915050565b600060208201905081810360008301526133a38184613350565b905092915050565b6000819050919050565b6133be816133ab565b81146133c957600080fd5b50565b6000813590506133db816133b5565b92915050565b6000602082840312156133f7576133f6613234565b5b6000613405848285016133cc565b91505092915050565b600073ffffffffffffffffffffffffffffffffffffffff82169050919050565b60006134398261340e565b9050919050565b6134498161342e565b82525050565b60006020820190506134646000830184613440565b92915050565b6134738161342e565b811461347e57600080fd5b50565b6000813590506134908161346a565b92915050565b600080604083850312156134ad576134ac613234565b5b60006134bb85828601613481565b92505060206134cc858286016133cc565b9150509250929050565b6134df816133ab565b82525050565b60006020820190506134fa60008301846134d6565b92915050565b60008060006060848603121561351957613518613234565b5b600061352786828701613481565b935050602061353886828701613481565b9250506040613549868287016133cc565b9150509250925092565b61355c816132c3565b811461356757600080fd5b50565b60008135905061357981613553565b92915050565b60006020828403121561359557613594613234565b5b60006135a38482850161356a565b91505092915050565b600080fd5b600080fd5b7f4e487b7100000000000000000000000000000000000000000000000000000000600052604160045260246000fd5b6135ee8261333f565b810181811067ffffffffffffffff8211171561360d5761360c6135b6565b5b80604052505050565b600061362061322a565b905061362c82826135e5565b919050565b600067ffffffffffffffff82111561364c5761364b6135b6565b5b6136558261333f565b9050602081019050919050565b82818337600083830152505050565b600061368461367f84613631565b613616565b9050828152602081018484840111156136a05761369f6135b1565b5b6136ab848285613662565b509392505050565b600082601f8301126136c8576136c76135ac565b5b81356136d8848260208601613671565b91505092915050565b6000602082840312156136f7576136f6613234565b5b600082013567ffffffffffffffff81111561371557613714613239565b5b613721848285016136b3565b91505092915050565b6000602082840312156137405761373f613234565b5b600061374e84828501613481565b91505092915050565b600081519050919050565b600082825260208201905092915050565b6000819050602082019050919050565b61378c816133ab565b82525050565b600061379e8383613783565b60208301905092915050565b6000602082019050919050565b60006137c282613757565b6137cc8185613762565b93506137d783613773565b8060005b838110156138085781516137ef8882613792565b97506137fa836137aa565b9250506001810190506137db565b5085935050505092915050565b6000602082019050818103600083015261382f81846137b7565b905092915050565b6000806040838503121561384e5761384d613234565b5b600061385c85828601613481565b925050602061386d8582860161356a565b9150509250929050565b600067ffffffffffffffff821115613892576138916135b6565b5b61389b8261333f565b9050602081019050919050565b60006138bb6138b684613877565b613616565b9050828152602081018484840111156138d7576138d66135b1565b5b6138e2848285613662565b509392505050565b600082601f8301126138ff576138fe6135ac565b5b813561390f8482602086016138a8565b91505092915050565b6000806000806080858703121561393257613931613234565b5b600061394087828801613481565b945050602061395187828801613481565b9350506040613962878288016133cc565b925050606085013567ffffffffffffffff81111561398357613982613239565b5b61398f878288016138ea565b91505092959194509250565b600080604083850312156139b2576139b1613234565b5b60006139c085828601613481565b92505060206139d185828601613481565b9150509250929050565b7f4e487b7100000000000000000000000000000000000000000000000000000000600052602260045260246000fd5b60006002820490506001821680613a2257607f821691505b602082108103613a3557613a346139db565b5b50919050565b7f4552433732313a20617070726f76616c20746f2063757272656e74206f776e6560008201527f7200000000000000000000000000000000000000000000000000000000000000602082015250565b6000613a97602183613304565b9150613aa282613a3b565b604082019050919050565b60006020820190508181036000830152613ac681613a8a565b9050919050565b7f4552433732313a20617070726f76652063616c6c6572206973206e6f7420746f60008201527f6b656e206f776e6572206f7220617070726f76656420666f7220616c6c000000602082015250565b6000613b29603d83613304565b9150613b3482613acd565b604082019050919050565b60006020820190508181036000830152613b5881613b1c565b9050919050565b7f6e6f6e6578697374656e7420746f6b656e000000000000000000000000000000600082015250565b6000613b95601183613304565b9150613ba082613b5f565b602082019050919050565b60006020820190508181036000830152613bc481613b88565b9050919050565b600081905092915050565b7f2f00000000000000000000000000000000000000000000000000000000000000600082015250565b6000613c0c600183613bcb565b9150613c1782613bd6565b600182019050919050565b6000613c2d826132f9565b613c378185613bcb565b9350613c47818560208601613315565b80840191505092915050565b60008190508160005260206000209050919050565b60008154613c7581613a0a565b613c7f8186613bcb565b94506001821660008114613c9a5760018114613caf57613ce2565b60ff1983168652811515820286019350613ce2565b613cb885613c53565b60005b83811015613cda57815481890152600182019150602081019050613cbb565b838801955050505b50505092915050565b6000613cf682613bff565b9150613d028285613c22565b9150613d0e8284613c68565b91508190509392505050565b7f4552433732313a2063616c6c6572206973206e6f7420746f6b656e206f776e6560008201527f72206f7220617070726f76656400000000000000000000000000000000000000602082015250565b6000613d76602d83613304565b9150613d8182613d1a565b604082019050919050565b60006020820190508181036000830152613da581613d69565b9050919050565b7f455243373231456e756d657261626c653a206f776e657220696e646578206f7560008201527f74206f6620626f756e6473000000000000000000000000000000000000000000602082015250565b6000613e08602b83613304565b9150613e1382613dac565b604082019050919050565b60006020820190508181036000830152613e3781613dfb565b9050919050565b600081905092915050565b50565b6000613e59600083613e3e565b9150613e6482613e49565b600082019050919050565b6000613e7a82613e4c565b9150819050919050565b6000604082019050613e9960008301856134d6565b613ea660208301846134d6565b9392505050565b7f455243373231456e756d657261626c653a20676c6f62616c20696e646578206f60008201527f7574206f6620626f756e64730000000000000000000000000000000000000000602082015250565b6000613f09602c83613304565b9150613f1482613ead565b604082019050919050565b60006020820190508181036000830152613f3881613efc565b9050919050565b7f4e487b7100000000000000000000000000000000000000000000000000000000600052603260045260246000fd5b60006020601f8301049050919050565b600082821b905092915050565b600060088302613fbb7fffffffffffffffffffffffffffffffffffffffffffffffffffffffffffffffff82613f7e565b613fc58683613f7e565b95508019841693508086168417925050509392505050565b6000819050919050565b6000614002613ffd613ff8846133ab565b613fdd565b6133ab565b9050919050565b6000819050919050565b61401c83613fe7565b61403061402882614009565b848454613f8b565b825550505050565b600090565b614045614038565b614050818484614013565b505050565b5b818110156140745761406960008261403d565b600181019050614056565b5050565b601f8211156140b95761408a81613c53565b61409384613f6e565b810160208510156140a2578190505b6140b66140ae85613f6e565b830182614055565b50505b505050565b600082821c905092915050565b60006140dc600019846008026140be565b1980831691505092915050565b60006140f583836140cb565b9150826002028217905092915050565b61410e826132f9565b67ffffffffffffffff811115614127576141266135b6565b5b6141318254613a0a565b61413c828285614078565b600060209050601f83116001811461416f576000841561415d578287015190505b61416785826140e9565b8655506141cf565b601f19841661417d86613c53565b60005b828110156141a557848901518255600182019150602085019450602081019050614180565b868310156141c257848901516141be601f8916826140cb565b8355505b6001600288020188555050505b505050505050565b7f4552433732313a20696e76616c696420746f6b656e2049440000000000000000600082015250565b600061420d601883613304565b9150614218826141d7565b602082019050919050565b6000602082019050818103600083015261423c81614200565b9050919050565b7f4e487b7100000000000000000000000000000000000000000000000000000000600052601160045260246000fd5b600061427d826133ab565b91507fffffffffffffffffffffffffffffffffffffffffffffffffffffffffffffffff82036142af576142ae614243565b5b600182019050919050565b7f4552433732313a2061646472657373207a65726f206973206e6f74206120766160008201527f6c6964206f776e65720000000000000000000000000000000000000000000000602082015250565b6000614316602983613304565b9150614321826142ba565b604082019050919050565b6000602082019050818103600083015261434581614309565b9050919050565b6000614357826133ab565b9150614362836133ab565b925082820190508082111561437a57614379614243565b5b92915050565b600061438b826133ab565b9150614396836133ab565b92508282026143a4816133ab565b915082820484148315176143bb576143ba614243565b5b5092915050565b600060ff82169050919050565b60006143da826143c2565b915060ff82036143ed576143ec614243565b5b600182019050919050565b6000614403826133ab565b915061440e836133ab565b925082820390508181111561442657614425614243565b5b92915050565b7f4f776e61626c653a206e6577206f776e657220697320746865207a65726f206160008201527f6464726573730000000000000000000000000000000000000000000000000000602082015250565b6000614488602683613304565b91506144938261442c565b604082019050919050565b600060208201905081810360008301526144b78161447b565b9050919050565b7f4e487b7100000000000000000000000000000000000000000000000000000000600052601260045260246000fd5b7f4552433732313a207472616e736665722066726f6d20696e636f72726563742060008201527f6f776e6572000000000000000000000000000000000000000000000000000000602082015250565b6000614549602583613304565b9150614554826144ed565b604082019050919050565b600060208201905081810360008301526145788161453c565b9050919050565b7f4552433732313a207472616e7366657220746f20746865207a65726f2061646460008201527f7265737300000000000000000000000000000000000000000000000000000000602082015250565b60006145db602483613304565b91506145e68261457f565b604082019050919050565b6000602082019050818103600083015261460a816145ce565b9050919050565b7f4f776e61626c653a2063616c6c6572206973206e6f7420746865206f776e6572600082015250565b6000614647602083613304565b915061465282614611565b602082019050919050565b600060208201905081810360008301526146768161463a565b9050919050565b7f45524337323155524953746f726167653a2055524920736574206f66206e6f6e60008201527f6578697374656e7420746f6b656e000000000000000000000000000000000000602082015250565b60006146d9602e83613304565b91506146e48261467d565b604082019050919050565b60006020820190508181036000830152614708816146cc565b9050919050565b7f4552433732313a20617070726f766520746f2063616c6c657200000000000000600082015250565b6000614745601983613304565b91506147508261470f565b602082019050919050565b6000602082019050818103600083015261477481614738565b9050919050565b7f4552433732313a207472616e7366657220746f206e6f6e20455243373231526560008201527f63656976657220696d706c656d656e7465720000000000000000000000000000602082015250565b60006147d7603283613304565b91506147e28261477b565b604082019050919050565b60006020820190508181036000830152614806816147ca565b9050919050565b60006148198285613c22565b91506148258284613c22565b91508190509392505050565b7f5061757361626c653a206e6f7420706175736564000000000000000000000000600082015250565b6000614867601483613304565b915061487282614831565b602082019050919050565b600060208201905081810360008301526148968161485a565b9050919050565b7f5061757361626c653a2070617573656400000000000000000000000000000000600082015250565b60006148d3601083613304565b91506148de8261489d565b602082019050919050565b60006020820190508181036000830152614902816148c6565b9050919050565b600081519050919050565b600082825260208201905092915050565b600061493082614909565b61493a8185614914565b935061494a818560208601613315565b6149538161333f565b840191505092915050565b60006080820190506149736000830187613440565b6149806020830186613440565b61498d60408301856134d6565b818103606083015261499f8184614925565b905095945050505050565b6000815190506149b98161326a565b92915050565b6000602082840312156149d5576149d4613234565b5b60006149e3848285016149aa565b91505092915050565b7f455243373231456e756d657261626c653a20636f6e736563757469766520747260008201527f616e7366657273206e6f7420737570706f727465640000000000000000000000602082015250565b6000614a48603583613304565b9150614a53826149ec565b604082019050919050565b60006020820190508181036000830152614a7781614a3b565b9050919050565b7f4552433732313a206d696e7420746f20746865207a65726f2061646472657373600082015250565b6000614ab4602083613304565b9150614abf82614a7e565b602082019050919050565b60006020820190508181036000830152614ae381614aa7565b9050919050565b7f4552433732313a20746f6b656e20616c7265616479206d696e74656400000000600082015250565b6000614b20601c83613304565b9150614b2b82614aea565b602082019050919050565b60006020820190508181036000830152614b4f81614b13565b9050919050565b7f4e487b7100000000000000000000000000000000000000000000000000000000600052603160045260246000fdfea2646970667358221220fc266dc7a8c188dbd767938a546844d8231145a5754dc2fdc0ac703d33ec92ab64736f6c6343000811003368747470733a2f2f697066732e696f2f697066732f516d536b71436e4c6a4d4b5676617979536e62764d414766674574777a5871546548413250423871796b666e4675",
  "devdoc": {
    "kind": "dev",
    "methods": {
      "approve(address,uint256)": {
        "details": "See {IERC721-approve}."
      },
      "balanceOf(address)": {
        "details": "See {IERC721-balanceOf}."
      },
      "getApproved(uint256)": {
        "details": "See {IERC721-getApproved}."
      },
      "isApprovedForAll(address,address)": {
        "details": "See {IERC721-isApprovedForAll}."
      },
      "name()": {
        "details": "See {IERC721Metadata-name}."
      },
      "owner()": {
        "details": "Returns the address of the current owner."
      },
      "ownerOf(uint256)": {
        "details": "See {IERC721-ownerOf}."
      },
      "paused()": {
        "details": "Returns true if the contract is paused, and false otherwise."
      },
      "renounceOwnership()": {
        "details": "Leaves the contract without owner. It will not be possible to call `onlyOwner` functions anymore. Can only be called by the current owner. NOTE: Renouncing ownership will leave the contract without an owner, thereby removing any functionality that is only available to the owner."
      },
      "safeTransferFrom(address,address,uint256)": {
        "details": "See {IERC721-safeTransferFrom}."
      },
      "safeTransferFrom(address,address,uint256,bytes)": {
        "details": "See {IERC721-safeTransferFrom}."
      },
      "setApprovalForAll(address,bool)": {
        "details": "See {IERC721-setApprovalForAll}."
      },
      "symbol()": {
        "details": "See {IERC721Metadata-symbol}."
      },
      "tokenByIndex(uint256)": {
        "details": "See {IERC721Enumerable-tokenByIndex}."
      },
      "tokenOfOwnerByIndex(address,uint256)": {
        "details": "See {IERC721Enumerable-tokenOfOwnerByIndex}."
      },
      "totalSupply()": {
        "details": "See {IERC721Enumerable-totalSupply}."
      },
      "transferFrom(address,address,uint256)": {
        "details": "See {IERC721-transferFrom}."
      },
      "transferOwnership(address)": {
        "details": "Transfers ownership of the contract to a new account (`newOwner`). Can only be called by the current owner."
      }
    },
    "version": 1
  },
  "userdoc": {
    "kind": "user",
    "methods": {},
    "version": 1
  },
  "storageLayout": {
    "storage": [
      {
        "astId": 300,
        "contract": "contracts/FriendsNFT.sol:FriendsNFT",
        "label": "_name",
        "offset": 0,
        "slot": "0",
        "type": "t_string_storage"
      },
      {
        "astId": 302,
        "contract": "contracts/FriendsNFT.sol:FriendsNFT",
        "label": "_symbol",
        "offset": 0,
        "slot": "1",
        "type": "t_string_storage"
      },
      {
        "astId": 306,
        "contract": "contracts/FriendsNFT.sol:FriendsNFT",
        "label": "_owners",
        "offset": 0,
        "slot": "2",
        "type": "t_mapping(t_uint256,t_address)"
      },
      {
        "astId": 310,
        "contract": "contracts/FriendsNFT.sol:FriendsNFT",
        "label": "_balances",
        "offset": 0,
        "slot": "3",
        "type": "t_mapping(t_address,t_uint256)"
      },
      {
        "astId": 314,
        "contract": "contracts/FriendsNFT.sol:FriendsNFT",
        "label": "_tokenApprovals",
        "offset": 0,
        "slot": "4",
        "type": "t_mapping(t_uint256,t_address)"
      },
      {
        "astId": 320,
        "contract": "contracts/FriendsNFT.sol:FriendsNFT",
        "label": "_operatorApprovals",
        "offset": 0,
        "slot": "5",
        "type": "t_mapping(t_address,t_mapping(t_address,t_bool))"
      },
      {
        "astId": 1368,
        "contract": "contracts/FriendsNFT.sol:FriendsNFT",
        "label": "_ownedTokens",
        "offset": 0,
        "slot": "6",
        "type": "t_mapping(t_address,t_mapping(t_uint256,t_uint256))"
      },
      {
        "astId": 1372,
        "contract": "contracts/FriendsNFT.sol:FriendsNFT",
        "label": "_ownedTokensIndex",
        "offset": 0,
        "slot": "7",
        "type": "t_mapping(t_uint256,t_uint256)"
      },
      {
        "astId": 1375,
        "contract": "contracts/FriendsNFT.sol:FriendsNFT",
        "label": "_allTokens",
        "offset": 0,
        "slot": "8",
        "type": "t_array(t_uint256)dyn_storage"
      },
      {
        "astId": 1379,
        "contract": "contracts/FriendsNFT.sol:FriendsNFT",
        "label": "_allTokensIndex",
        "offset": 0,
        "slot": "9",
        "type": "t_mapping(t_uint256,t_uint256)"
      },
      {
        "astId": 1720,
        "contract": "contracts/FriendsNFT.sol:FriendsNFT",
        "label": "_tokenURIs",
        "offset": 0,
        "slot": "10",
        "type": "t_mapping(t_uint256,t_string_storage)"
      },
      {
        "astId": 130,
        "contract": "contracts/FriendsNFT.sol:FriendsNFT",
        "label": "_paused",
        "offset": 0,
        "slot": "11",
        "type": "t_bool"
      },
      {
        "astId": 7,
        "contract": "contracts/FriendsNFT.sol:FriendsNFT",
        "label": "_owner",
        "offset": 1,
        "slot": "11",
        "type": "t_address"
      },
      {
        "astId": 3995,
        "contract": "contracts/FriendsNFT.sol:FriendsNFT",
        "label": "_tokenIdCounter",
        "offset": 0,
        "slot": "12",
        "type": "t_struct(Counter)2248_storage"
      },
      {
        "astId": 3997,
        "contract": "contracts/FriendsNFT.sol:FriendsNFT",
        "label": "cost",
        "offset": 0,
        "slot": "13",
        "type": "t_uint256"
      },
      {
        "astId": 3999,
        "contract": "contracts/FriendsNFT.sol:FriendsNFT",
        "label": "maxSupply",
        "offset": 0,
        "slot": "14",
        "type": "t_uint256"
      },
      {
        "astId": 4001,
        "contract": "contracts/FriendsNFT.sol:FriendsNFT",
        "label": "allowMintingAfter",
        "offset": 0,
        "slot": "15",
        "type": "t_uint256"
      },
      {
        "astId": 4003,
        "contract": "contracts/FriendsNFT.sol:FriendsNFT",
        "label": "maxMintAmount",
        "offset": 0,
        "slot": "16",
        "type": "t_uint256"
      },
      {
        "astId": 4005,
        "contract": "contracts/FriendsNFT.sol:FriendsNFT",
        "label": "timeDeployed",
        "offset": 0,
        "slot": "17",
        "type": "t_uint256"
      },
      {
        "astId": 4008,
        "contract": "contracts/FriendsNFT.sol:FriendsNFT",
        "label": "isPaused",
        "offset": 0,
        "slot": "18",
        "type": "t_bool"
      },
      {
        "astId": 4011,
        "contract": "contracts/FriendsNFT.sol:FriendsNFT",
        "label": "isRevealed",
        "offset": 1,
        "slot": "18",
        "type": "t_bool"
      },
      {
        "astId": 4014,
        "contract": "contracts/FriendsNFT.sol:FriendsNFT",
        "label": "baseURI",
        "offset": 0,
        "slot": "19",
        "type": "t_string_storage"
      },
      {
        "astId": 4017,
        "contract": "contracts/FriendsNFT.sol:FriendsNFT",
        "label": "baseExtension",
        "offset": 0,
        "slot": "20",
        "type": "t_string_storage"
      }
    ],
    "types": {
      "t_address": {
        "encoding": "inplace",
        "label": "address",
        "numberOfBytes": "20"
      },
      "t_array(t_uint256)dyn_storage": {
        "base": "t_uint256",
        "encoding": "dynamic_array",
        "label": "uint256[]",
        "numberOfBytes": "32"
      },
      "t_bool": {
        "encoding": "inplace",
        "label": "bool",
        "numberOfBytes": "1"
      },
      "t_mapping(t_address,t_bool)": {
        "encoding": "mapping",
        "key": "t_address",
        "label": "mapping(address => bool)",
        "numberOfBytes": "32",
        "value": "t_bool"
      },
      "t_mapping(t_address,t_mapping(t_address,t_bool))": {
        "encoding": "mapping",
        "key": "t_address",
        "label": "mapping(address => mapping(address => bool))",
        "numberOfBytes": "32",
        "value": "t_mapping(t_address,t_bool)"
      },
      "t_mapping(t_address,t_mapping(t_uint256,t_uint256))": {
        "encoding": "mapping",
        "key": "t_address",
        "label": "mapping(address => mapping(uint256 => uint256))",
        "numberOfBytes": "32",
        "value": "t_mapping(t_uint256,t_uint256)"
      },
      "t_mapping(t_address,t_uint256)": {
        "encoding": "mapping",
        "key": "t_address",
        "label": "mapping(address => uint256)",
        "numberOfBytes": "32",
        "value": "t_uint256"
      },
      "t_mapping(t_uint256,t_address)": {
        "encoding": "mapping",
        "key": "t_uint256",
        "label": "mapping(uint256 => address)",
        "numberOfBytes": "32",
        "value": "t_address"
      },
      "t_mapping(t_uint256,t_string_storage)": {
        "encoding": "mapping",
        "key": "t_uint256",
        "label": "mapping(uint256 => string)",
        "numberOfBytes": "32",
        "value": "t_string_storage"
      },
      "t_mapping(t_uint256,t_uint256)": {
        "encoding": "mapping",
        "key": "t_uint256",
        "label": "mapping(uint256 => uint256)",
        "numberOfBytes": "32",
        "value": "t_uint256"
      },
      "t_string_storage": {
        "encoding": "bytes",
        "label": "string",
        "numberOfBytes": "32"
      },
      "t_struct(Counter)2248_storage": {
        "encoding": "inplace",
        "label": "struct Counters.Counter",
        "members": [
          {
            "astId": 2247,
            "contract": "contracts/FriendsNFT.sol:FriendsNFT",
            "label": "_value",
            "offset": 0,
            "slot": "0",
            "type": "t_uint256"
          }
        ],
        "numberOfBytes": "32"
      },
      "t_uint256": {
        "encoding": "inplace",
        "label": "uint256",
        "numberOfBytes": "32"
      }
    }
  }
}