{
  "_format": "hh-sol-artifact-1",
  "contractName": "NFTmarket",
  "sourceName": "contracts/NFTmarket.sol",
  "abi": [
    {
      "inputs": [
        {
          "internalType": "uint8",
          "name": "_marketFeePercent",
          "type": "uint8"
        }
      ],
      "stateMutability": "nonpayable",
      "type": "constructor"
    },
    {
      "inputs": [],
      "name": "NFTmarket__AlreadyListed",
      "type": "error"
    },
    {
      "inputs": [],
      "name": "NFTmarket__NoBalance",
      "type": "error"
    },
    {
      "inputs": [],
      "name": "NFTmarket__NotApprovedBySeller",
      "type": "error"
    },
    {
      "inputs": [],
      "name": "NFTmarket__NotListed",
      "type": "error"
    },
    {
      "inputs": [],
      "name": "NFTmarket__NotMarketOwnerOrSeller",
      "type": "error"
    },
    {
      "inputs": [],
      "name": "NFTmarket__NotNftOwner",
      "type": "error"
    },
    {
      "inputs": [],
      "name": "NFTmarket__PriceNotValid",
      "type": "error"
    },
    {
      "inputs": [],
      "name": "NFTmarket__SentOwnerFailed",
      "type": "error"
    },
    {
      "inputs": [],
      "name": "NFTmarket__SentSellerFailed",
      "type": "error"
    },
    {
      "inputs": [],
      "name": "NFTmarket__SentWrongValue",
      "type": "error"
    },
    {
      "anonymous": false,
      "inputs": [
        {
          "indexed": false,
          "internalType": "address",
          "name": "nftContractAddr",
          "type": "address"
        },
        {
          "indexed": false,
          "internalType": "uint256",
          "name": "tokenId",
          "type": "uint256"
        },
        {
          "indexed": false,
          "internalType": "address",
          "name": "buyer",
          "type": "address"
        },
        {
          "indexed": false,
          "internalType": "address",
          "name": "seller",
          "type": "address"
        },
        {
          "indexed": false,
          "internalType": "uint256",
          "name": "price",
          "type": "uint256"
        },
        {
          "indexed": false,
          "internalType": "uint256",
          "name": "time",
          "type": "uint256"
        }
      ],
      "name": "BoughtNFT",
      "type": "event"
    },
    {
      "anonymous": false,
      "inputs": [
        {
          "indexed": false,
          "internalType": "address",
          "name": "nftContractAddr",
          "type": "address"
        },
        {
          "indexed": false,
          "internalType": "uint256",
          "name": "tokenId",
          "type": "uint256"
        },
        {
          "indexed": false,
          "internalType": "uint256",
          "name": "time",
          "type": "uint256"
        }
      ],
      "name": "DeletedListing",
      "type": "event"
    },
    {
      "anonymous": false,
      "inputs": [
        {
          "indexed": false,
          "internalType": "address",
          "name": "nftContractAddr",
          "type": "address"
        },
        {
          "indexed": false,
          "internalType": "uint256",
          "name": "tokenId",
          "type": "uint256"
        },
        {
          "indexed": true,
          "internalType": "address",
          "name": "seller",
          "type": "address"
        },
        {
          "indexed": false,
          "internalType": "uint256",
          "name": "price",
          "type": "uint256"
        },
        {
          "indexed": false,
          "internalType": "uint256",
          "name": "time",
          "type": "uint256"
        }
      ],
      "name": "ListedNFT",
      "type": "event"
    },
    {
      "anonymous": false,
      "inputs": [
        {
          "indexed": true,
          "internalType": "address",
          "name": "owner",
          "type": "address"
        },
        {
          "indexed": false,
          "internalType": "uint256",
          "name": "amount",
          "type": "uint256"
        },
        {
          "indexed": false,
          "internalType": "uint256",
          "name": "time",
          "type": "uint256"
        }
      ],
      "name": "MarketOwnerWithdrew",
      "type": "event"
    },
    {
      "anonymous": false,
      "inputs": [
        {
          "indexed": true,
          "internalType": "address",
          "name": "previousOwner",
          "type": "address"
        },
        {
          "indexed": true,
          "internalType": "address",
          "name": "newOwner",
          "type": "address"
        }
      ],
      "name": "OwnershipTransferred",
      "type": "event"
    },
    {
      "anonymous": false,
      "inputs": [
        {
          "indexed": true,
          "internalType": "address",
          "name": "seller",
          "type": "address"
        },
        {
          "indexed": false,
          "internalType": "uint256",
          "name": "amount",
          "type": "uint256"
        },
        {
          "indexed": false,
          "internalType": "uint256",
          "name": "time",
          "type": "uint256"
        }
      ],
      "name": "SellerWithdrew",
      "type": "event"
    },
    {
      "anonymous": false,
      "inputs": [
        {
          "indexed": false,
          "internalType": "address",
          "name": "nftContractAddr",
          "type": "address"
        },
        {
          "indexed": false,
          "internalType": "uint256",
          "name": "tokenId",
          "type": "uint256"
        },
        {
          "indexed": false,
          "internalType": "uint256",
          "name": "newPrice",
          "type": "uint256"
        },
        {
          "indexed": false,
          "internalType": "uint256",
          "name": "time",
          "type": "uint256"
        }
      ],
      "name": "UpdatedListingPrice",
      "type": "event"
    },
    {
      "inputs": [
        {
          "internalType": "address",
          "name": "nftContractAddr",
          "type": "address"
        },
        {
          "internalType": "uint256",
          "name": "tokenId",
          "type": "uint256"
        }
      ],
      "name": "buyNFT",
      "outputs": [],
      "stateMutability": "payable",
      "type": "function"
    },
    {
      "inputs": [
        {
          "internalType": "address",
          "name": "nftContractAddr",
          "type": "address"
        },
        {
          "internalType": "uint256",
          "name": "tokenId",
          "type": "uint256"
        }
      ],
      "name": "deleteListing",
      "outputs": [],
      "stateMutability": "nonpayable",
      "type": "function"
    },
    {
      "inputs": [],
      "name": "getContractBalance",
      "outputs": [
        {
          "internalType": "uint256",
          "name": "",
          "type": "uint256"
        }
      ],
      "stateMutability": "view",
      "type": "function"
    },
    {
      "inputs": [
        {
          "internalType": "address",
          "name": "nftContractAddr",
          "type": "address"
        },
        {
          "internalType": "uint256",
          "name": "tokenId",
          "type": "uint256"
        }
      ],
      "name": "getListing",
      "outputs": [
        {
          "internalType": "address",
          "name": "",
          "type": "address"
        },
        {
          "internalType": "uint256",
          "name": "",
          "type": "uint256"
        }
      ],
      "stateMutability": "view",
      "type": "function"
    },
    {
      "inputs": [
        {
          "internalType": "address",
          "name": "seller",
          "type": "address"
        }
      ],
      "name": "getSellerProceed",
      "outputs": [
        {
          "internalType": "uint256",
          "name": "",
          "type": "uint256"
        }
      ],
      "stateMutability": "view",
      "type": "function"
    },
    {
      "inputs": [
        {
          "internalType": "address",
          "name": "nftContractAddr",
          "type": "address"
        },
        {
          "internalType": "uint256",
          "name": "tokenId",
          "type": "uint256"
        },
        {
          "internalType": "uint256",
          "name": "price",
          "type": "uint256"
        }
      ],
      "name": "listNFT",
      "outputs": [],
      "stateMutability": "nonpayable",
      "type": "function"
    },
    {
      "inputs": [],
      "name": "marketFeePercent",
      "outputs": [
        {
          "internalType": "uint8",
          "name": "",
          "type": "uint8"
        }
      ],
      "stateMutability": "view",
      "type": "function"
    },
    {
      "inputs": [],
      "name": "marketOwner",
      "outputs": [
        {
          "internalType": "address",
          "name": "",
          "type": "address"
        }
      ],
      "stateMutability": "view",
      "type": "function"
    },
    {
      "inputs": [],
      "name": "marketOwnerWithdraw",
      "outputs": [],
      "stateMutability": "nonpayable",
      "type": "function"
    },
    {
      "inputs": [],
      "name": "owner",
      "outputs": [
        {
          "internalType": "address",
          "name": "",
          "type": "address"
        }
      ],
      "stateMutability": "view",
      "type": "function"
    },
    {
      "inputs": [],
      "name": "renounceOwnership",
      "outputs": [],
      "stateMutability": "nonpayable",
      "type": "function"
    },
    {
      "inputs": [],
      "name": "sellerWithdraw",
      "outputs": [],
      "stateMutability": "nonpayable",
      "type": "function"
    },
    {
      "inputs": [
        {
          "internalType": "address",
          "name": "newOwner",
          "type": "address"
        }
      ],
      "name": "transferOwnership",
      "outputs": [],
      "stateMutability": "nonpayable",
      "type": "function"
    },
    {
      "inputs": [
        {
          "internalType": "address",
          "name": "nftContractAddr",
          "type": "address"
        },
        {
          "internalType": "uint256",
          "name": "tokenId",
          "type": "uint256"
        },
        {
          "internalType": "uint256",
          "name": "newPrice",
          "type": "uint256"
        }
      ],
      "name": "updateListingPrice",
      "outputs": [],
      "stateMutability": "nonpayable",
      "type": "function"
    }
  ],
  "bytecode": "0x60c06040523480156200001157600080fd5b5060405162002c8a38038062002c8a83398181016040528101906200003791906200020d565b620000576200004b620000fb60201b60201c565b6200010360201b60201c565b600180819055506200007a675a8a172b4969b9ac60c01b620001c760201b60201c565b62000096673375d5b01dcfdcc560c01b620001c760201b60201c565b3373ffffffffffffffffffffffffffffffffffffffff1660a08173ffffffffffffffffffffffffffffffffffffffff1681525050620000e667d6feccba67665b5e60c01b620001c760201b60201c565b8060ff1660808160ff1681525050506200023f565b600033905090565b60008060009054906101000a900473ffffffffffffffffffffffffffffffffffffffff169050816000806101000a81548173ffffffffffffffffffffffffffffffffffffffff021916908373ffffffffffffffffffffffffffffffffffffffff1602179055508173ffffffffffffffffffffffffffffffffffffffff168173ffffffffffffffffffffffffffffffffffffffff167f8be0079c531659141344cd1fd0a4f28419497f9722a3daafe3b4186f6b6457e060405160405180910390a35050565b50565b600080fd5b600060ff82169050919050565b620001e781620001cf565b8114620001f357600080fd5b50565b6000815190506200020781620001dc565b92915050565b600060208284031215620002265762000225620001ca565b5b60006200023684828501620001f6565b91505092915050565b60805160a051612a1762000273600039600081816105b601526108cb01526000818161136901526115ef0152612a176000f3fe6080604052600436106100dd5760003560e01c806388700d1c1161007f578063aaf51b7e11610059578063aaf51b7e14610268578063ad05f1b414610293578063f2fde38b146102bc578063f7232f67146102e5576100dd565b806388700d1c146101e35780638da5cb5b14610221578063a82ba76f1461024c576100dd565b80634fe5d985116100bb5780634fe5d9851461016157806366af746b1461018a5780636f9fb98a146101a1578063715018a6146101cc576100dd565b80630d263183146100e257806347d90b5c146100f95780634d64886c14610124575b600080fd5b3480156100ee57600080fd5b506100f761030e565b005b34801561010557600080fd5b5061010e6105b4565b60405161011b919061239c565b60405180910390f35b34801561013057600080fd5b5061014b600480360381019061014691906123e8565b6105d8565b604051610158919061242e565b60405180910390f35b34801561016d57600080fd5b5061018860048036038101906101839190612475565b61065d565b005b34801561019657600080fd5b5061019f610acb565b005b3480156101ad57600080fd5b506101b6610e11565b6040516101c3919061242e565b60405180910390f35b3480156101d857600080fd5b506101e1610e55565b005b3480156101ef57600080fd5b5061020a60048036038101906102059190612475565b610e69565b6040516102189291906124b5565b60405180910390f35b34801561022d57600080fd5b50610236610fa5565b604051610243919061239c565b60405180910390f35b61026660048036038101906102619190612475565b610fce565b005b34801561027457600080fd5b5061027d6115ed565b60405161028a91906124fa565b60405180910390f35b34801561029f57600080fd5b506102ba60048036038101906102b59190612515565b611611565b005b3480156102c857600080fd5b506102e360048036038101906102de91906123e8565b611ca2565b005b3480156102f157600080fd5b5061030c60048036038101906103079190612515565b611d25565b005b610322671cdcaa03b4ecc6be60c01b6121b6565b61032a6121b9565b61033e67fbb456cb522237ab60c01b6121b6565b610352674ec759abeb4271b760c01b6121b6565b610366675cfe14abb59e1ed060c01b6121b6565b61037a6718abae87c2ee39d560c01b6121b6565b6000479050610393672ea6020e1cff9bb860c01b6121b6565b6103a767c6892c81b6bffca160c01b6121b6565b600081116103f5576103c367072915e25fe1618160c01b6121b6565b6040517f2c482da200000000000000000000000000000000000000000000000000000000815260040160405180910390fd5b610409673212663ba0ef689a60c01b6121b6565b61041d671b4b6ba2963c58a760c01b6121b6565b61043167d7ab6b42e6e1aa3c60c01b6121b6565b60003373ffffffffffffffffffffffffffffffffffffffff168260405161045790612599565b60006040518083038185875af1925050503d8060008114610494576040519150601f19603f3d011682016040523d82523d6000602084013e610499565b606091505b505090506104b1676690a950c356d38160c01b6121b6565b6104c5678d24acf4845ddab060c01b6121b6565b80610524576104de6734310ae3d9dfa46760c01b6121b6565b6104f267cfd1d0970714b26860c01b6121b6565b6040517ffe81b9e300000000000000000000000000000000000000000000000000000000815260040160405180910390fd5b61053867c217ef846bde40eb60c01b6121b6565b61054c67c6cfb147517453ed60c01b6121b6565b61056067b87da263a62400c260c01b6121b6565b3373ffffffffffffffffffffffffffffffffffffffff167f19f37d14fd91b1d4066aaef180765c105ed3184b0a36512bfc996ff2a9bebf3c83426040516105a89291906125ae565b60405180910390a25050565b7f000000000000000000000000000000000000000000000000000000000000000081565b60006105ee674192b6b94fdf73bf60c01b6121b6565b610602677968b7329c9b108c60c01b6121b6565b61061667e594117ee6f6345560c01b6121b6565b600260008373ffffffffffffffffffffffffffffffffffffffff1673ffffffffffffffffffffffffffffffffffffffff168152602001908152602001600020549050919050565b61067167ef4a6844b69d974060c01b6121b6565b8181610687676b5e53f4ba35851260c01b6121b6565b61069b671efc0ebe01ae7af060c01b6121b6565b6106af67678e510336b7bd7f60c01b6121b6565b6000600360008473ffffffffffffffffffffffffffffffffffffffff1673ffffffffffffffffffffffffffffffffffffffff168152602001908152602001600020600083815260200190815260200160002060010154116107645761071e67094a1f756b9c4b6660c01b6121b6565b61073267342a7bc5147522c760c01b6121b6565b6040517f8539649f00000000000000000000000000000000000000000000000000000000815260040160405180910390fd5b61077867dc3ee6024d1666a460c01b6121b6565b61078c67ac7700bdd4c683bc60c01b6121b6565b6107a067f02e51b53346424b60c01b6121b6565b6107b467d8970897186001d460c01b6121b6565b83836107ca67d24294a076c5fd0560c01b6121b6565b6107de6763cb6fde0bd8c8f660c01b6121b6565b6107f2672f97abe3886b98fb60c01b6121b6565b6000600360008473ffffffffffffffffffffffffffffffffffffffff1673ffffffffffffffffffffffffffffffffffffffff168152602001908152602001600020600083815260200190815260200160002060000160009054906101000a900473ffffffffffffffffffffffffffffffffffffffff16905061087e67866f865c19983b2f60c01b6121b6565b610892671371290434bb95db60c01b6121b6565b8073ffffffffffffffffffffffffffffffffffffffff163373ffffffffffffffffffffffffffffffffffffffff161415801561091a57507f000000000000000000000000000000000000000000000000000000000000000073ffffffffffffffffffffffffffffffffffffffff163373ffffffffffffffffffffffffffffffffffffffff1614155b1561097957610933675fcb1a34a2aff6c160c01b6121b6565b610947676edef4afe6a0194360c01b6121b6565b6040517fadc8e09e00000000000000000000000000000000000000000000000000000000815260040160405180910390fd5b61098d67d7b3aafe6b35556960c01b6121b6565b6109a1676ea73e66b45933bd60c01b6121b6565b6109b567322645241d50025860c01b6121b6565b6109c967fa7879da626d32df60c01b6121b6565b6109dd672ea3a82ef2a7654060c01b6121b6565b600360008873ffffffffffffffffffffffffffffffffffffffff1673ffffffffffffffffffffffffffffffffffffffff1681526020019081526020016000206000878152602001908152602001600020600080820160006101000a81549073ffffffffffffffffffffffffffffffffffffffff021916905560018201600090555050610a736717ff3e7d0f18f42360c01b6121b6565b610a876769d4db44b24f73ce60c01b6121b6565b7fc4435e2925a8b547043940662d73838cc5b892da8bfadaf29b0bd75022f463be878742604051610aba939291906125d7565b60405180910390a150505050505050565b610adf67e5d5e4c49718f06160c01b6121b6565b610ae7612237565b610afb67a2b7538905cae2e260c01b6121b6565b610b0f67d0f55bc6cf3fb2dd60c01b6121b6565b610b2367a0037a9a1602f49760c01b6121b6565b610b37670e373ddb2f33b7a860c01b6121b6565b6000600260003373ffffffffffffffffffffffffffffffffffffffff1673ffffffffffffffffffffffffffffffffffffffff168152602001908152602001600020549050610b8f67521fa0b644bc6a2b60c01b6121b6565b610ba367f9194a981f0b989d60c01b6121b6565b60008111610bf157610bbf67ad26194bb3372ddf60c01b6121b6565b6040517f2c482da200000000000000000000000000000000000000000000000000000000815260040160405180910390fd5b610c056764d60e60f07a5b3460c01b6121b6565b610c1967ed0a8d5818df71c660c01b6121b6565b6000600260003373ffffffffffffffffffffffffffffffffffffffff1673ffffffffffffffffffffffffffffffffffffffff16815260200190815260200160002081905550610c7267935c2d772a3f303e60c01b6121b6565b610c8667104244872fb20dd060c01b6121b6565b60003373ffffffffffffffffffffffffffffffffffffffff1682604051610cac90612599565b60006040518083038185875af1925050503d8060008114610ce9576040519150601f19603f3d011682016040523d82523d6000602084013e610cee565b606091505b50509050610d0667bef7d7d6496dff9e60c01b6121b6565b610d1a677b54866a9503a25560c01b6121b6565b80610d7957610d3367a9f9b0f741a1009460c01b6121b6565b610d4767808eb85981c1145b60c01b6121b6565b6040517f7d1e019400000000000000000000000000000000000000000000000000000000815260040160405180910390fd5b610d8d67f36044a64c278c1f60c01b6121b6565b610da167624c7785e70f41e260c01b6121b6565b610db5676d629be2f2517b4460c01b6121b6565b3373ffffffffffffffffffffffffffffffffffffffff167f64c923790e0b99ebc1f5a143045efb5cce8768a999269c565a9089af09a340148342604051610dfd9291906125ae565b60405180910390a25050610e0f612286565b565b6000610e2767d7bb97951180644b60c01b6121b6565b610e3b67c2158d4329ec813260c01b6121b6565b610e4f67c70ce12e9a65ba6360c01b6121b6565b47905090565b610e5d6121b9565b610e67600061228f565b565b600080610e806798cd200fc19e6f1b60c01b6121b6565b610e9467fe1c13e6036327a460c01b6121b6565b610ea86791900600ca5b7cfc60c01b6121b6565b6000600360008673ffffffffffffffffffffffffffffffffffffffff1673ffffffffffffffffffffffffffffffffffffffff16815260200190815260200160002060008581526020019081526020016000206040518060400160405290816000820160009054906101000a900473ffffffffffffffffffffffffffffffffffffffff1673ffffffffffffffffffffffffffffffffffffffff1673ffffffffffffffffffffffffffffffffffffffff1681526020016001820154815250509050610f7b670373225a4fed10ad60c01b6121b6565b610f8f672e345f46d3b96cbb60c01b6121b6565b8060000151816020015192509250509250929050565b60008060009054906101000a900473ffffffffffffffffffffffffffffffffffffffff16905090565b610fe26705348fac44b2ede860c01b6121b6565b8181610ff8676b5e53f4ba35851260c01b6121b6565b61100c671efc0ebe01ae7af060c01b6121b6565b61102067678e510336b7bd7f60c01b6121b6565b6000600360008473ffffffffffffffffffffffffffffffffffffffff1673ffffffffffffffffffffffffffffffffffffffff168152602001908152602001600020600083815260200190815260200160002060010154116110d55761108f67094a1f756b9c4b6660c01b6121b6565b6110a367342a7bc5147522c760c01b6121b6565b6040517f8539649f00000000000000000000000000000000000000000000000000000000815260040160405180910390fd5b6110e967dc3ee6024d1666a460c01b6121b6565b6110fd67ac7700bdd4c683bc60c01b6121b6565b611111675273556704f25af760c01b6121b6565b61112567fcc15b2339d04a4b60c01b6121b6565b61112d612237565b611141672a27b1220a17a06160c01b6121b6565b61115567ec51d17ab32c17fd60c01b6121b6565b611169673da6388869dc0b3360c01b6121b6565b61117d678ab786179e641db160c01b6121b6565b6000600360008673ffffffffffffffffffffffffffffffffffffffff1673ffffffffffffffffffffffffffffffffffffffff16815260200190815260200160002060008581526020019081526020016000206040518060400160405290816000820160009054906101000a900473ffffffffffffffffffffffffffffffffffffffff1673ffffffffffffffffffffffffffffffffffffffff1673ffffffffffffffffffffffffffffffffffffffff168152602001600182015481525050905061125067835cf2d4bd05fdd560c01b6121b6565b61126467d144f3573985d08d60c01b6121b6565b60008160000151905061128167fa4a5607bc3929a860c01b6121b6565b611295671183f354162b939c60c01b6121b6565b6000826020015190506112b267c67c70126f4707bb60c01b6121b6565b6112c667370b507c8118604960c01b6121b6565b348114611327576112e167a2bbef720596ef2f60c01b6121b6565b6112f56708232f29877e2bb560c01b6121b6565b6040517f810880a300000000000000000000000000000000000000000000000000000000815260040160405180910390fd5b61133b67cb67325c8478262760c01b6121b6565b61134f67fa5002fa269fe74f60c01b6121b6565b61136367319ff82e1c0f8e1960c01b6121b6565b600060647f000000000000000000000000000000000000000000000000000000000000000060ff1683611396919061263d565b6113a091906126ae565b90506113b667148ae0e6a076b06e60c01b6121b6565b6113ca67d2463a8b86de914260c01b6121b6565b600081836113d891906126df565b90506113ee67ec03c19c3d070a9c60c01b6121b6565b600360008a73ffffffffffffffffffffffffffffffffffffffff1673ffffffffffffffffffffffffffffffffffffffff1681526020019081526020016000206000898152602001908152602001600020600080820160006101000a81549073ffffffffffffffffffffffffffffffffffffffff0219169055600182016000905550506114846773d583eb301b6b5c60c01b6121b6565b80600260008673ffffffffffffffffffffffffffffffffffffffff1673ffffffffffffffffffffffffffffffffffffffff16815260200190815260200160002060008282546114d39190612713565b925050819055506114ee676b1144d16265e82d60c01b6121b6565b6115026766261434d7965c3660c01b6121b6565b8873ffffffffffffffffffffffffffffffffffffffff166342842e0e85338b6040518463ffffffff1660e01b815260040161153f93929190612747565b600060405180830381600087803b15801561155957600080fd5b505af115801561156d573d6000803e3d6000fd5b5050505061158567b5bfdd9e9c99c0d560c01b6121b6565b61159967e60f4b22aa5ec89c60c01b6121b6565b7f08b377f96876f657861d4473ec9238f91698ede9abc4de2aa73f87e1b96f808f8989338787426040516115d29695949392919061277e565b60405180910390a150505050506115e7612286565b50505050565b7f000000000000000000000000000000000000000000000000000000000000000081565b61162567c2d498364bff8b6860c01b6121b6565b828261163b67eef9d210ef3d8f4c60c01b6121b6565b61164f676576c5cb2af9788460c01b6121b6565b61166367ad19d09b3fb3739360c01b6121b6565b60008273ffffffffffffffffffffffffffffffffffffffff16636352211e836040518263ffffffff1660e01b815260040161169e919061242e565b602060405180830381865afa1580156116bb573d6000803e3d6000fd5b505050506040513d601f19601f820116820180604052508101906116df91906127f4565b90506116f56726dbabdbb16940c260c01b6121b6565b61170967ed3258194e92113b60c01b6121b6565b3373ffffffffffffffffffffffffffffffffffffffff168173ffffffffffffffffffffffffffffffffffffffff16146117965761175067e79146184ff7e84c60c01b6121b6565b61176467f8db8910cf42f76c60c01b6121b6565b6040517f286b9a3100000000000000000000000000000000000000000000000000000000815260040160405180910390fd5b6117aa67cd250fdd5fef99c060c01b6121b6565b6117be6757ceac9703acdc1960c01b6121b6565b6117d2671c7680cc2131d7ce60c01b6121b6565b6117e667ec225e29c8ba802d60c01b6121b6565b85856117fc67cb438b607a2dc0c960c01b6121b6565b611810671682195271429bbd60c01b6121b6565b611824670c1330df2db5533a60c01b6121b6565b6000600360008473ffffffffffffffffffffffffffffffffffffffff1673ffffffffffffffffffffffffffffffffffffffff16815260200190815260200160002060008381526020019081526020016000206001015411156118da5761189467a3a2df8ce47fc54c60c01b6121b6565b6118a867169fd4c757f82e4660c01b6121b6565b6040517f1d8987aa00000000000000000000000000000000000000000000000000000000815260040160405180910390fd5b6118ee67610d4c628f12b7f460c01b6121b6565b6119026796348539bb2fa6f760c01b6121b6565b61191667566157c4554c6a7a60c01b6121b6565b61192a6781f16df7fafad7e560c01b6121b6565b61193e67f2854016f178b62460c01b6121b6565b61195267d52eb518cb26a95b60c01b6121b6565b600086116119b45761196e67c15865f22b78b30c60c01b6121b6565b61198267216ca8d91591736b60c01b6121b6565b6040517f2269fd9700000000000000000000000000000000000000000000000000000000815260040160405180910390fd5b6119c867f05f12563c42547660c01b6121b6565b6119dc67dfeae66a5c22528360c01b6121b6565b6119f0670aa8f3153dbb891160c01b6121b6565b3073ffffffffffffffffffffffffffffffffffffffff168873ffffffffffffffffffffffffffffffffffffffff1663081812fc896040518263ffffffff1660e01b8152600401611a40919061242e565b602060405180830381865afa158015611a5d573d6000803e3d6000fd5b505050506040513d601f19601f82011682018060405250810190611a8191906127f4565b73ffffffffffffffffffffffffffffffffffffffff1614611af657611ab0678b26ddaf3d2fc83160c01b6121b6565b611ac46736936285b54d788160c01b6121b6565b6040517fbd51507400000000000000000000000000000000000000000000000000000000815260040160405180910390fd5b611b0a67201adef0f73b401860c01b6121b6565b611b1e671d653a4300cc318460c01b6121b6565b33600360008a73ffffffffffffffffffffffffffffffffffffffff1673ffffffffffffffffffffffffffffffffffffffff168152602001908152602001600020600089815260200190815260200160002060000160006101000a81548173ffffffffffffffffffffffffffffffffffffffff021916908373ffffffffffffffffffffffffffffffffffffffff160217905550611bc467ed9389f8b59a607660c01b6121b6565b85600360008a73ffffffffffffffffffffffffffffffffffffffff1673ffffffffffffffffffffffffffffffffffffffff168152602001908152602001600020600089815260200190815260200160002060010181905550611c3067ca58dd2b8f97b09c60c01b6121b6565b611c4467a31e617fc2123b0d60c01b6121b6565b3373ffffffffffffffffffffffffffffffffffffffff167f4b6573714cc13585029697c2a60f19f85084c164e3c857b1eb9f1044d55bedbd89898942604051611c909493929190612821565b60405180910390a25050505050505050565b611caa6121b9565b600073ffffffffffffffffffffffffffffffffffffffff168173ffffffffffffffffffffffffffffffffffffffff1603611d19576040517f08c379a0000000000000000000000000000000000000000000000000000000008152600401611d10906128e9565b60405180910390fd5b611d228161228f565b50565b611d39672f4ea25088e6375660c01b6121b6565b8282611d4f676b5e53f4ba35851260c01b6121b6565b611d63671efc0ebe01ae7af060c01b6121b6565b611d7767678e510336b7bd7f60c01b6121b6565b6000600360008473ffffffffffffffffffffffffffffffffffffffff1673ffffffffffffffffffffffffffffffffffffffff16815260200190815260200160002060008381526020019081526020016000206001015411611e2c57611de667094a1f756b9c4b6660c01b6121b6565b611dfa67342a7bc5147522c760c01b6121b6565b6040517f8539649f00000000000000000000000000000000000000000000000000000000815260040160405180910390fd5b611e4067dc3ee6024d1666a460c01b6121b6565b611e5467ac7700bdd4c683bc60c01b6121b6565b611e68676fbb7d9c7b8ea18e60c01b6121b6565b611e7c6716458e81686017e760c01b6121b6565b8484611e9267eef9d210ef3d8f4c60c01b6121b6565b611ea6676576c5cb2af9788460c01b6121b6565b611eba67ad19d09b3fb3739360c01b6121b6565b60008273ffffffffffffffffffffffffffffffffffffffff16636352211e836040518263ffffffff1660e01b8152600401611ef5919061242e565b602060405180830381865afa158015611f12573d6000803e3d6000fd5b505050506040513d601f19601f82011682018060405250810190611f3691906127f4565b9050611f4c6726dbabdbb16940c260c01b6121b6565b611f6067ed3258194e92113b60c01b6121b6565b3373ffffffffffffffffffffffffffffffffffffffff168173ffffffffffffffffffffffffffffffffffffffff1614611fed57611fa767e79146184ff7e84c60c01b6121b6565b611fbb67f8db8910cf42f76c60c01b6121b6565b6040517f286b9a3100000000000000000000000000000000000000000000000000000000815260040160405180910390fd5b61200167cd250fdd5fef99c060c01b6121b6565b6120156757ceac9703acdc1960c01b6121b6565b61202967e9bc078d64550e4860c01b6121b6565b61203d67190932340d22973260c01b6121b6565b61205167db186cc876f0575760c01b6121b6565b612065676ce5edb4aeb81b2660c01b6121b6565b600086116120c7576120816743312e152073ccbc60c01b6121b6565b61209567b76501836b0f935460c01b6121b6565b6040517f2269fd9700000000000000000000000000000000000000000000000000000000815260040160405180910390fd5b6120db6760aa8f2368f6aa6760c01b6121b6565b6120ef67f66ffbea771b011a60c01b6121b6565b85600360008a73ffffffffffffffffffffffffffffffffffffffff1673ffffffffffffffffffffffffffffffffffffffff16815260200190815260200160002060008981526020019081526020016000206001018190555061215b67b2ef61ca44c504d360c01b6121b6565b61216f67839851fef23e501c60c01b6121b6565b7f80afd253c5e11a1922b33b91a631de75be3cac3b5e39fa9ac64f6ea85048fbf8888888426040516121a49493929190612821565b60405180910390a15050505050505050565b50565b6121c1612353565b73ffffffffffffffffffffffffffffffffffffffff166121df610fa5565b73ffffffffffffffffffffffffffffffffffffffff1614612235576040517f08c379a000000000000000000000000000000000000000000000000000000000815260040161222c90612955565b60405180910390fd5b565b60026001540361227c576040517f08c379a0000000000000000000000000000000000000000000000000000000008152600401612273906129c1565b60405180910390fd5b6002600181905550565b60018081905550565b60008060009054906101000a900473ffffffffffffffffffffffffffffffffffffffff169050816000806101000a81548173ffffffffffffffffffffffffffffffffffffffff021916908373ffffffffffffffffffffffffffffffffffffffff1602179055508173ffffffffffffffffffffffffffffffffffffffff168173ffffffffffffffffffffffffffffffffffffffff167f8be0079c531659141344cd1fd0a4f28419497f9722a3daafe3b4186f6b6457e060405160405180910390a35050565b600033905090565b600073ffffffffffffffffffffffffffffffffffffffff82169050919050565b60006123868261235b565b9050919050565b6123968161237b565b82525050565b60006020820190506123b1600083018461238d565b92915050565b600080fd5b6123c58161237b565b81146123d057600080fd5b50565b6000813590506123e2816123bc565b92915050565b6000602082840312156123fe576123fd6123b7565b5b600061240c848285016123d3565b91505092915050565b6000819050919050565b61242881612415565b82525050565b6000602082019050612443600083018461241f565b92915050565b61245281612415565b811461245d57600080fd5b50565b60008135905061246f81612449565b92915050565b6000806040838503121561248c5761248b6123b7565b5b600061249a858286016123d3565b92505060206124ab85828601612460565b9150509250929050565b60006040820190506124ca600083018561238d565b6124d7602083018461241f565b9392505050565b600060ff82169050919050565b6124f4816124de565b82525050565b600060208201905061250f60008301846124eb565b92915050565b60008060006060848603121561252e5761252d6123b7565b5b600061253c868287016123d3565b935050602061254d86828701612460565b925050604061255e86828701612460565b9150509250925092565b600081905092915050565b50565b6000612583600083612568565b915061258e82612573565b600082019050919050565b60006125a482612576565b9150819050919050565b60006040820190506125c3600083018561241f565b6125d0602083018461241f565b9392505050565b60006060820190506125ec600083018661238d565b6125f9602083018561241f565b612606604083018461241f565b949350505050565b7f4e487b7100000000000000000000000000000000000000000000000000000000600052601160045260246000fd5b600061264882612415565b915061265383612415565b925082820261266181612415565b915082820484148315176126785761267761260e565b5b5092915050565b7f4e487b7100000000000000000000000000000000000000000000000000000000600052601260045260246000fd5b60006126b982612415565b91506126c483612415565b9250826126d4576126d361267f565b5b828204905092915050565b60006126ea82612415565b91506126f583612415565b925082820390508181111561270d5761270c61260e565b5b92915050565b600061271e82612415565b915061272983612415565b92508282019050808211156127415761274061260e565b5b92915050565b600060608201905061275c600083018661238d565b612769602083018561238d565b612776604083018461241f565b949350505050565b600060c082019050612793600083018961238d565b6127a0602083018861241f565b6127ad604083018761238d565b6127ba606083018661238d565b6127c7608083018561241f565b6127d460a083018461241f565b979650505050505050565b6000815190506127ee816123bc565b92915050565b60006020828403121561280a576128096123b7565b5b6000612818848285016127df565b91505092915050565b6000608082019050612836600083018761238d565b612843602083018661241f565b612850604083018561241f565b61285d606083018461241f565b95945050505050565b600082825260208201905092915050565b7f4f776e61626c653a206e6577206f776e657220697320746865207a65726f206160008201527f6464726573730000000000000000000000000000000000000000000000000000602082015250565b60006128d3602683612866565b91506128de82612877565b604082019050919050565b60006020820190508181036000830152612902816128c6565b9050919050565b7f4f776e61626c653a2063616c6c6572206973206e6f7420746865206f776e6572600082015250565b600061293f602083612866565b915061294a82612909565b602082019050919050565b6000602082019050818103600083015261296e81612932565b9050919050565b7f5265656e7472616e637947756172643a207265656e7472616e742063616c6c00600082015250565b60006129ab601f83612866565b91506129b682612975565b602082019050919050565b600060208201905081810360008301526129da8161299e565b905091905056fea26469706673582212204002092a0569c4693d8c3542521352093ed103df5eb832e2f81dc151e6d399cb64736f6c63430008110033",
  "linkReferences": {},
  "deployedLinkReferences": {}
}